:020000040800F2
:10000000100900207102000889130008BF110008C0
:100010008513000895050008071F00080000000070
:10002000000000000000000000000000991500081A
:10003000250F00080000000019140008C916000868
:100040008B0200088B0200088B0200088B0200085C
:100050008B0200088B020008E90F00088B020008E1
:100060008B0200088B0200088B0200088B0200083C
:100070008B0200088B0200088B0200088B0200082C
:100080008B0200088B0200088B0200088B0200081C
:100090008B0200088B0200088B0200088B0200080C
:1000A0008B0200088B0200088B0200088B020008FC
:1000B0008B0200087D1800088B0200088B020008E4
:1000C0008B0200088B0200088B0200088B020008DC
:1000D0008B020008851A00088B0200088B020008BA
:1000E0008B0200088B0200088B0200088B020008BC
:1000F0008B0200088B0200088B0200088B020008AC
:100100008B0200088B0200088B0200088B0200089B
:100110008B0200088B0200088B0200088B0200088B
:100120008B0200088B0200088B0200088B0200087B
:100130008B0200088B0200088B0200088B0200086B
:100140008B0200088B0200088B0200088B0200085B
:100150008B0200088B0200088B020008951B000828
:100160008B0200088B0200088B0200088B0200083B
:100170008B0200088B0200088B0200088B0200082B
:100180008B0200088B02000800F002F800F061F812
:100190000AA090E8000C82448344AAF10107DA45E2
:1001A00001D100F056F8AFF2090EBAE80F0013F0D3
:1001B000010F18BFFB1A43F001031847441E00004B
:1001C000641E00000A444FF0000C10F8013B13F0CD
:1001D000070408BF10F8014B1D1108BF10F8015BA0
:1001E000641E05D010F8016B641E01F8016BF9D193
:1001F00013F0080F1EBF10F8014BAD1C0C1B09D1EA
:100200006D1E58BF01F801CBFAD505E014F8016B5B
:1002100001F8016B6D1EF9D59142D6D370470000ED
:100220000023002400250026103A28BF78C1FBD8FF
:10023000520728BF30C148BF0B607047642900F0E7
:100240007F80002070471FB501F0D4FE1FBD10B5A0
:1002500010BD00F02AF91146FFF7F5FF01F068FE26
:1002600000F048F903B4FFF7F2FF03BC00F050F9C7
:100270000948804709480047FEE7FEE7FEE7FEE73A
:10028000FEE7FEE7FEE7FEE7FEE7FEE70448054976
:10029000054A064B70470000CD160008890100088A
:1002A0001003002010090020100500201005002078
:1002B0000FB41CB5074B06AA7B446946009005980D
:1002C00000F0DBF80020694600F0EAF81CBC5DF89D
:1002D00014FB0000E50100002DE9F0410E46044644
:1002E000002020622046E168884730B3252805D0E9
:1002F000D4E901219047206A401CF2E7E1682046DA
:1003000000278847050018D0A5F14100192802D818
:1003100020354FF400673246294620462760FFF714
:100320008DFF40B1012804D0F61D26F007060836DF
:10033000D8E7361DD6E72846DAE7206ABDE8F0811F
:100340002DE9F0410646002410687529314616A5AE
:1003500010D0AFF30080002802DA404213A507E076
:1003600031688A0701D512A502E0490704D511A515
:10037000012401E0AFF3008000210A2206F12407E6
:1003800009E0B0FBF2FCB0FBF2F302FB1C003030E2
:1003900078541846491C0028F3D123462A46304693
:1003A000BDE8F04100F00BB8000000002D00000097
:1003B0002B000000200000007047704770472DE9B7
:1003C000F0470D4699469246044600F1240801681C
:1003D000880604D5E06921F01001216000E00120C9
:1003E000A84201DD471B00E00027A1697A1902EB52
:1003F0000900081AA0612078C00602D42046AFF395
:100400000080002608E0D4E901211AF80600904790
:10041000206A401C761C20624E45F4DB2078C00622
:100420000AD52046AFF3008006E0D4E90121302050
:100430009047206A401C2062381EA7F10107F4DCB7
:1004400007E0D4E9012118F805009047206A401C14
:100450002062281EA5F10105F3DC2046AFF30080E1
:100460002078000602D50220BDE8F0870120FBE7D6
:1004700001694A1C02610878704700B58FB0CDE968
:1004800001310021059105497944CDE90310114658
:100490006846FFF721FF0FB000BD0000E5FFFFFF3A
:1004A0000A6802F8010B0A607047754600F02CF8E4
:1004B000AE4605006946534620F00700854618B051
:1004C00020B5FFF7E3FEBDE820404FF000064FF0F7
:1004D00000074FF000084FF0000B21F00701AC4679
:1004E000ACE8C009ACE8C009ACE8C009ACE8C00998
:1004F0008D46704710B50446AFF300802046BDE836
:100500001040FFF7AFBE000000487047AC0200206B
:1005100001491820ABBEFEE726000200704700002C
:100520001CB50121084600F079FF01208DF8040078
:1005300000208DF806004FF40040009002208DF856
:10054000070003208DF805006946044800F0BAFD55
:100550004FF40041014800F029FE1CBD000002409C
:1005600010B500F02FFE10BD1CB50121402000F099
:1005700055FF00208DF804004FF40060009000202B
:100580008DF807006946024800F09CFD1CBD000084
:100590000018024000BFFEE72DE9F04104460E4678
:1005A0004FF0000834480078012861D11A2E5CDB36
:1005B0002079617900EB012085B2207E617E00EB1D
:1005C000012087B22078AA284DD1607855284AD1D9
:1005D0003146204600F082FAB84241D1462D0AD178
:1005E000A07A012800D140E04FF001081A212348E9
:1005F00000F0B2FB39E0202D02D14FF0010834E0C9
:10060000602D02D14FF001082FE0402D02D14FF0B4
:1006100001082AE0612D02D14FF0010825E0632D89
:100620000CD1A07AE17A00EB012015490870A07A7C
:10063000E17A00EB01201FFA80F816E0642D0CD15E
:10064000A07AE17A00EB01200D490870A07AE17AE6
:1006500000EB01201FFA80F807E04FF0000804E0EB
:100660004FF0000801E04FF0000800200249087038
:100670004046BDE8F0810000350000206A000020FF
:100680002F00002070B50A461A2A37DB0578467815
:10069000354486783544C6783544067935444679FC
:1006A000354486793544C6793544067A3544467AE8
:1006B0003544867AAB19C57A067B3544467B35448A
:1006C000867B3544C67B3544067C3544467C3544C0
:1006D000867C3544C67C3544067D3544467D3544AC
:1006E000867D3544C67DAC191D19A9B201760D0A67
:1006F0004576034E31700D0A024E357070BD000014
:100700002C0000202D00002070B504460025002696
:1007100001F0FCFB41F2883146180020C449087002
:10072000C4A1C84801F0E0FBC7480288C7A1CB4874
:10073000FFF7BEFDC949C34801F0D6FB0120C849F7
:10074000087071E1C7480078012872D1C448007868
:100750000128FAD1C4A1BB4801F0C6FBC5490C72FF
:10076000200A48721A21C348FFF78CFF1A21C1489A
:1007700000F0F2FA01F0CAFB00F57A7504E02846B1
:1007800001F0CAFB00B905E06421BB48FFF704FF94
:100790000028F4D000BF1A21B848FFF773FF1A21D0
:1007A000B64800F0D9FA01F0B1FB00F57A7504E023
:1007B000284601F0B1FB00B905E06421AE48FFF71F
:1007C000EBFE0028F4D000BF002000F013FB01F086
:1007D0009DFB00F57A7504E0284601F09DFB00B909
:1007E00005E06421A448FFF7D7FE0028F4D000BF3D
:1007F000012000F0FFFA01F089FB00F57A7504E0B2
:10080000284601F089FB00B905E064219A48FFF70A
:10081000C3FE0028F4D000BF022000F0EBFA01F084
:1008200075FB00F57A7505E0284601F075FB08B9FF
:1008300006E0E0E064219048FFF7AEFE0028F3D028
:1008400000BF1A218E48FFF71DFF1A218C4800F0C7
:1008500083FA01F05BFB00F57A7504E0284601F0AD
:100860005BFB00B905E064218348FFF795FE002893
:10087000F4D000BF1A218348FFF704FF1A218148F2
:1008800000F06AFA01F042FB00F57A7504E02846B0
:1008900001F042FB00B905E064217748FFF77CFED8
:1008A0000028F4D000BF1A217748FFF7EBFE1A2189
:1008B000754800F051FA01F029FB00F57A7504E063
:1008C000284601F029FB00B905E064216A48FFF7DA
:1008D00063FE0028F4D000BF1A216A48FFF7D2FE59
:1008E0001A21684800F038FA01F010FB00F57A751B
:1008F00004E0284601F010FB00B905E064215E48E1
:10090000FFF74AFE0028F4D000BF1A215F48FFF726
:10091000B9FE1A215D4800F01FFA01F0F7FA00F560
:100920007A7504E0284601F0F7FA00B905E0642181
:100930005148FFF731FE0028F4D000BF1A21544877
:10094000FFF7A0FE1A21524800F006FA01F0DEFA85
:1009500000F57A7504E0284601F0DEFA00B905E0FA
:1009600064214548FFF718FE0028F4D000BF49492C
:100970000C72200A48721A214648FFF783FE1A219A
:10098000444800F0E9F901F0C1FA00F57A7504E095
:10099000284601F0C1FA00B905E064213648FFF7A6
:1009A000FBFD0028F4D000BF3BA1264801F09CFAD3
:1009B00022463EA14248FFF77BFC4149214801F015
:1009C00093FA1A213F4800F0C7F91F480088401CDD
:1009D0001D49088001201649087000202049087030
:1009E000204908704FF4FA7000F0BEFA4FF4FA7024
:1009F00000F0BAFA19E0304601F08EFAA0B932A13F
:100A0000104801F071FA4FF4FA7000F0ADFA4FF4AB
:100A1000FA7000F0A9FA0020124908701049087015
:100A200001200349087000E08CE600BF70BD0000A3
:100A30002E000020537461727420656E726F6C6CAE
:100A40000D0A00000010014032000020456E726F58
:100A50006C6C2049443A2564200D0A00980200205D
:100A60003000002034000020456E726F6C6C696E9F
:100A7000670D0A0006010020020200203600002057
:100A800020010020500000203A01002054010020E5
:100A90006E010020D2000020456E726F6C6C2053F6
:100AA0007563636573730D0A000000002020202029
:100AB00049443A256420202020200D0A000000002F
:100AC0006602002084000020456E726F6C6C2074FA
:100AD000696D656F75740D0A0000000070B50246FF
:100AE00000251A292FDB1078567830449678304448
:100AF000D67830441679304456793044967930446B
:100B0000D6793044167A3044567A3044967A83192E
:100B1000D07A167B3044567B3044967B3044D67B6B
:100B20003044167C3044567C3044967C3044D67C2D
:100B30003044167D3044567D3044967D3044D67D19
:100B40008419181985B2A8B270BD000010B5002430
:100B50005A48007801287CD1594800780128FAD1F8
:100B600058A15C4801F0C0F91A215B48FFF78AFDE3
:100B70001A21594800F0F0F801F0C8F900F57A742C
:100B8000322000F0F1F908E0204601F0C5F920B963
:100B90001A21524800F0E0F805E064215048FFF7C0
:100BA000FBFC0028F0D000BF002000F023F901F08A
:100BB000ADF900F57A74C82000F0D6F904E02046BB
:100BC00001F0AAF900B905E064214548FFF7E4FC0B
:100BD0000028F4D000BF1A214248FFF753FD1A2124
:100BE000404800F0B9F801F091F900F5FA64C82026
:100BF00000F0BAF904E0204601F08EF900B905E0F2
:100C000064213748FFF7C8FC0028F4D000BF4FE04C
:100C10003548007890B335A12E4801F065F94FF4BE
:100C20000041384800F0C4FA642000F09DF94FF408
:100C30000041344800F0BAFA2B48027832A1374814
:100C4000FFF736FB3549234801F04EF91A213448A5
:100C500000E031E000F080F84FF4FA7000F084F921
:100C60004FF4FA7000F080F94FF4FA7000F07CF95C
:100C700000201D4908701149087019E0FFE729A1FB
:100C8000144801F031F91A21144800F065F84FF4C6
:100C9000FA7000F069F94FF4FA7000F065F94FF45A
:100CA000FA7000F061F900200F49087003490870DC
:100CB000024800780028ABD110BD000034000020AD
:100CC0002E0000204964656E746966792049440DE0
:100CD0000A00000000100140360000209E000020A5
:100CE00002020020880100202F0000204964656E68
:100CF0007469667920494420537563636573730D85
:100D00000A000000000002404964656E746966795B
:100D10002049443A25640D0A0000000066020020C4
:100D2000B80000204964656E7469667920494420E2
:100D300074696D656F75740D0A00000010B54FF48D
:100D4000E13000F055FF00F00FF81A21014800F0E3
:100D500003F810BDB800002070B504460D462946C2
:100D6000204600F0A5FF70BD00B585B001214020F0
:100D700000F054FB0121880300F070FB0120039078
:100D800000208DF8100002208DF8130003A91248EE
:100D900000F098F90021062000F000FC01200190ED
:100DA00000208DF8080008208DF8090001208DF83A
:100DB0000A0001A800F03CF906208DF80000002090
:100DC0008DF8010001208DF802008DF803006846BF
:100DD00000F0DCFA05B000BD0018024010B51A2181
:100DE0000348FFF74FFC1A210148FFF7B5FF10BD7C
:100DF000EC00002010B5044606490C72200A487227
:100E00001A210448FFF73EFC1A210248FFF7A4FF0D
:100E100010BD00002001002010B5002400F028F8CB
:100E200004E0601CC4B2012000F0BCF808210F48A7
:100E300000F0B3F908B1642CF3DB642C01DB012072
:100E400010BD002404E0601CC4B2012000F0AAF828
:100E50000821064800F0A1F908B9642CF3DB642CE2
:100E600001DB0120ECE70020EAE700000008024077
:100E70001CB500208DF804000820009000208DF89B
:100E800007006946014800F01DF91CBD000802403A
:100E90001CB501208DF804000820009003208DF877
:100EA000050001208DF806006946024800F00AF9A5
:100EB0001CBD0000000802401CB50121042000F008
:100EC000ADFA01208DF804000820009003208DF871
:100ED000050000208DF806006946064800F0F2F88B
:100EE0000821044800F064F900F006F8FFF794FFC9
:100EF0001CBD00000008024010B5FFF7C9FF00222A
:100F00000821074800F056F9142000F02DF80122BE
:100F10000821034800F04EF9282000F043F810BDE6
:100F2000000802407047000000204FF0E0210861F7
:100F3000094800680949B0FBF1F009490860084612
:100F400000684FF47A7148430649086000204FF06A
:100F5000E0218861704700000000002000127A0044
:100F60001400002018000020014600200C4A1268DE
:100F70004A434FF0E0235A6100229A6101221A612C
:100F800000BF4FF0E022106900F480321AB900F07F
:100F90000102002AF5D100224FF0E0231A617047C8
:100FA00018000020014600200E4A12684A434FF004
:100FB000E0235A6100229A611A46126942F0010246
:100FC0001A6100BF4FF0E022106900F480321AB9B4
:100FD00000F00102002AF5D100224FF0E0231A614F
:100FE000704700001400002010B5012000F014F834
:100FF000012808D10448007810B90120024908707E
:10100000012000F003F810BD340000200149086001
:1010100070470000143C014001460020034A12685A
:101020000A400AB1012000E000207047143C014052
:10103000002123498279002A3AD00A4612680368BF
:101040009A430B461A600A1D126803689A430B1DE7
:101050001A60027911440A6803681A430A60184A40
:101060000832126803689A43154B08331A601A1D38
:10107000126803689A43124B0C331A604279102AA3
:101080000ED11A1F126803681A430D4B08331A60F9
:101090001A1D126803681A43094B0C331A600DE0DD
:1010A0000749427911440A6803681A430A6005E057
:1010B000027911440A6803689A430A607047000085
:1010C000003C0140F0B50A4600210023002400BF87
:1010D0003DE0012505FA01F3156805EA03049C4289
:1010E00034D105684F000326BE40B543056015792D
:1010F0004E00B5400668354305601579012D02D0D4
:101100001579022D16D185684F000326BE40B543E0
:10111000856055794E00B5408668354385604568E1
:1011200001268E40B5434560456896798E40B6B23B
:1011300035434560C5684F000326BE40B543C560D2
:10114000D5794E00B540C6683543C560491C1029A5
:10115000BFD3F0BDF0B5002300244D07ED0E02FA19
:1011600005F3CE1000F1200555F826504E07F70E76
:101170000F26BE40B543CF1000F1200646F8275099
:10118000CE1000F1200555F8265045EA0304CE1094
:1011900000F1200545F82640F0BD02460020136905
:1011A0000B400BB1012000E00020704741837047E5
:1011B000018370470AB1018300E04183704700BF9B
:1011C000FEE700001CB50121222000F027F90220D3
:1011D000009001208DF8040000208DF80600032007
:1011E0008DF8050001208DF8070069460A48FFF7D1
:1011F00069FF4FF48060009069460848FFF762FF7E
:10120000012202210448FFF7D5FF01229102034881
:10121000FFF7D0FF1CBD0000000402400014024094
:101220001CB50121602000F0F9F800208DF80400C1
:1012300001208DF807004003009069460C48FFF735
:1012400041FF4FF40050009069460A48FFF73AFF0B
:101250004FF48040009069460648FFF733FF4FF493
:101260000040009069460348FFF72CFF1CBD0000BA
:10127000001802400014024010B5044614B10120C9
:10128000304908702F48007800283DD04FF40051B5
:101290002D48FFF782FF88B14FF400512B48FFF72C
:1012A0007CFF58B14FF480412848FFF776FF28B102
:1012B0004FF400412548FFF770FF28BB0A20FFF7D5
:1012C00053FE00201F4908704FF400511E48FFF7DD
:1012D00064FF08B9012010BD4FF400511B48FFF70F
:1012E0005CFF08B90220F6E74FF480411748FFF78A
:1012F00054FF08B90320EEE74FF400411348FFF70D
:101300004CFFE0B90420E6E74FF400510E48FFF728
:1013100044FF012813D141030C48FFF73EFF012889
:101320000DD181030948FFF738FF012807D1C10318
:101330000648FFF732FF012801D10249087000205A
:10134000C9E70000BC010020001802400014024060
:101350001CB50121102000F061F83C200090012014
:101360008DF8040000208DF8060003208DF805009C
:1013700001208DF8070069460148FFF7A3FE1CBD58
:101380000010024000BFFEE77047000070B500216A
:1013900000230F22C4781CB3174C246804F4E064C3
:1013A000C4F5E064C4F30721C1F10404E3B20A41C7
:1013B00044789C40E1B28478144021430C07210E0C
:1013C0000E4C05786155047804F01F050124AC40EB
:1013D00005786D11AD0005F1E025C5F8004109E083
:1013E000047804F01F050124AC40054D0678761101
:1013F00045F8264070BD00000CED00E000E400E080
:1014000080E100E002490143024A11607047000098
:101410000000FA050CED00E07047000029B1064A13
:1014200012680243044B1A6004E0034A12688243C4
:10143000014B1A60704700003038024029B1064A5B
:1014400012680243044B1A6004E0034A12688243A4
:10145000014B1A60704700004038024029B1064A2B
:1014600012680243044B1A6004E0034A1268824384
:10147000014B1A607047000044380240F0B500216B
:1014800000220024022500260223324F3F6807F085
:101490000C0121B1042905D0082937D105E02E4FD0
:1014A000076036E02D4F076033E02A4F3F1F3F684B
:1014B000C7F38056274F3F1F3F6807F03F036EB1C9
:1014C000264FB7FBF3F7DFF88CC0ACF1040CDCF867
:1014D00000C0CCF3881C07FB0CF40CE01E4FB7FBDC
:1014E000F3F7DFF870C0ACF1040CDCF800C0CCF30B
:1014F000881C07FB0CF4174F3F1F3F68C7F30147D9
:101500007F1C7D00B4FBF5F7076002E0124F076017
:1015100000BF00BF0F4F3F6807F0F0010909104FEF
:101520007A5C0768D74047600A4F3F6807F4E0518C
:10153000890A0B4F7A5C4768D7408760054F3F6840
:1015400007F46041490B064F7A5C4768D740C76093
:10155000F0BD0000083802400024F40040787D010E
:10156000BD0100201CB501214020FFF757FF0120DD
:101570008DF8040000208DF80600802000900220E5
:101580008DF8070003208DF8050069460148FFF734
:1015900099FD1CBD001802407047000030B50022C4
:1015A0008B071C0F0F2303FA04F20B4B8C1053F81C
:1015B00024309343084C8D1044F8253023468C107A
:1015C00053F824308C07240F00FA04F42343024C10
:1015D0008D1044F8253030BD083801400CB500208E
:1015E000019000903448006840F48030324908602F
:1015F00000BF3148006800F4003000900198401CA2
:101600000190009818B90198B0F5A04FF1D12A487F
:10161000006800F4003010B10120009001E00020CB
:1016200000900098012846D123484030006840F0DF
:1016300080502149403108602048006840F4404013
:101640001E4908601C48083000681B4908310860C2
:101650000846006840F4004008600846006840F40E
:10166000A05008601648091F0860081F006840F075
:101670008070091F086000BF0F48006800F000700C
:101680000028F9D040F205700E4908600A48083079
:10169000006820F003000849083108600846006827
:1016A00040F00200086000BF03480830006800F006
:1016B0000C000828F8D10CBD003802400070004032
:1016C00019544007003C02407047000010B515480F
:1016D000006840F47000134908601348006840F047
:1016E00001001149086000200F49083108600E48C8
:1016F00000680E4908400C4908600D48091D086043
:10170000081F006820F48020091F08600020064997
:101710000C310860FFF762FF4FF00060014980392B
:10172000086010BD88ED00E000380240FFFFF6FEC3
:101730001030002430B58BB005460C4601218020C6
:10174000FFF77CFE01212020FFF768FE0922082117
:101750001F48FFF7FFFC02208DF8280000208DF8BD
:101760002A004FF48070099003208DF82900012091
:101770008DF82B0009A91648FFF7A4FC0020ADF84E
:101780002000A8B2ADF8180007940020ADF81A00A8
:1017900006A9104800F034F96020ADF804000120DB
:1017A000ADF806000020ADF8100001A9094800F0CE
:1017B000DFF80821074800F019F90121054800F079
:1017C000A1F80121034800F0ACF80BB030BD0000D7
:1017D00000140240001C004030B58BB005460C469A
:1017E00001212020FFF71AFE01210802FFF726FE43
:1017F000092211461F48FFF7ADFC4FF40070099015
:1018000002208DF8280000208DF82A0003208DF892
:10181000290001208DF82B0009A91648FFF752FC7A
:101820000020ADF82000A8B2ADF818000794002001
:10183000ADF81A0006A9104800F0E2F86020ADF8F3
:1018400004000120ADF806000020ADF8100001A949
:10185000094800F08DF80821074800F0C7F8012179
:10186000054800F04FF80121034800F05AF80BB08A
:1018700030BD0000001402400020004010B50121DE
:10188000074800F05AF8012804D106480068401CB7
:10189000044908600121024800F040F810BD000032
:1018A00000040040240000207FB505460C460121BD
:1018B0000220FFF7C3FD0295ADF804400020ADF80B
:1018C0000600ADF80C0001A90D4800F099F80122BE
:1018D00011460B4800F042F80121094800F021F8B8
:1018E0001D208DF8000001208DF8010003208DF8E7
:1018F000020001208DF803006846FFF747FD7FBD19
:101900000004004021B1028842F08002028004E01D
:1019100002884FF67F731A4002807047CA430282E2
:10192000704721B1028842F00102028004E002887F
:101930004FF6FE731A400280704730B50246002011
:1019400000230024158A05EA0103958905EA0104AC
:1019500013B10CB1012000E0002030BD1AB1838921
:101960000B43838102E083898B43838170470000AE
:1019700070B5002400220023058C4FF6FE7635401A
:101980000584028C8388048B4FF68F752C40B51E1E
:101990002C400D882C43751E2A408D892A434D8882
:1019A0002A43104DA84202D00F4DA84213D14FF642
:1019B000F7752A40CD892A434FF6FB752A408D885A
:1019C0002A434FF6FF652B404FF6FF552B400D8AFB
:1019D0002B434D8A2B43838004838D6845630284A7
:1019E00070BD000000000140000401400A460021D3
:1019F000018B4FF6F77319401143018370470000C4
:101A000000220288184B98420ED0184B98420BD0F7
:101A1000B0F1804F08D0164B984205D0154B984234
:101A200002D0154B984204D14FF68F731A404B8861
:101A30001A43124B984207D0114B984204D04FF6EC
:101A4000FF431A400B891A4302804B68C3620B881C
:101A50000385054B984202D0044B984201D18B7A02
:101A60000386012383827047000001400004014087
:101A70000004004000080040000C0040001000403E
:101A80000014004010B540F225510E4800F05AF9FC
:101A9000012811D10B4800F00FFA0B490B4A1268CC
:101AA00088540A480068401C0849086008460068D5
:101AB000322801D10020086040F22551014800F091
:101AC00019F910BD00100140D00100201C000020B9
:101AD00010B588B0044601211020FFF7BFFC01219A
:101AE0000846FFF79BFC072209212848FFF732FB35
:101AF00007220A212548FFF72DFB02208DF81C0044
:101B000000208DF81E0003208DF81D004FF400709A
:101B1000069006A91D48FFF7D5FA02208DF81C0093
:101B200000208DF81F004FF48060069006A917482A
:101B3000FFF7C8FA02940020ADF814000C20ADF8AD
:101B400012000020ADF80C00ADF80E00ADF810004A
:101B500002A90F4800F046F9012240F225510C4835
:101B600000F01AF925208DF8040001208DF80700F7
:101B700000208DF806008DF8050001A8FFF706FC8F
:101B80000121034800F0C5F808B010BD0000024074
:101B90000010014010B540F22551104800F0D2F875
:101BA000012815D10D4800F087F9C1B20C48028810
:101BB0000088401C0A4B18800A4881541846008847
:101BC0001A2805DB01200849087000201946088002
:101BD00040F22551054800F08DF810BD0014014079
:101BE00020000020020200203500002000440040B8
:101BF00010B588B0044601210420FFF70FFC012135
:101C00002020FFF72BFC082206212748FFF7A2FA25
:101C1000082207212448FFF79DFA40200690022061
:101C20008DF81C0000208DF81E0003208DF81D008B
:101C300006A91D48FFF746FA8020069002208DF87D
:101C40001C0000208DF81F0006A91748FFF73AFA7C
:101C500002940C20ADF812000020ADF81400ADF88D
:101C60000C00ADF81000ADF80E0002A90F4800F00E
:101C7000B9F847208DF8040000208DF805000120F8
:101C80008DF806008DF8070001A8FFF77FFB012201
:101C900040F22551054800F07FF80121034800F08B
:101CA00038F808B010BD00000008024000140140E0
:101CB0002DE9F04105460E4600240027374604E092
:101CC000285D00F007F8601C84B2BC42F8D1BDE882
:101CD000F081000010B504462146054800F000F9E7
:101CE00000BF8021024800F020F80028F9D010BD84
:101CF0000014014010B50022002340F66A14A142EE
:101D000000D100BF0A1201249440A3B2DC43048036
:101D100010BD21B1828942F40052828104E082899F
:101D20004DF6FF731A408281704702460020B1F5DC
:101D3000007F00D100BF13880B400BB1012000E0F1
:101D40000020704770B502460024002300250020C3
:101D500040F66A16B14200D100BFC1F3421501F04E
:101D60001F03012606FA03F3012D02D196893340A1
:101D700006E0022D02D1168A334001E0968A3340F4
:101D80000C12012606FA04F41688344013B10CB183
:101D9000012000E0002070BDF0B5034600240026BD
:101DA0000025002040F66A17B94200D100BF18464E
:101DB000C1F3421401F01F06012707FA06F5012CB2
:101DC00001D10C3004E0022C01D1103000E01430BD
:101DD0001AB107682F43076002E00768AF43076046
:101DE000F0BD00002DE9FF4705460E460024A14640
:101DF00000BFA046B08900B100BF2C8A24F4405433
:101E0000F08804432C82AC8941F20C608443B08892
:101E100031890843718908430443AC81AC8A24F4B6
:101E20004074B0890443AC826846FFF727FB204822
:101E3000854202D01F48854202D1DDF80C9001E0B6
:101E4000DDF80890A88900F4004040B109EBC90012
:101E500000EB091031684900B0FBF1F707E009EB2E
:101E6000C90000EB091031688900B0FBF1F764206C
:101E7000B7FBF0F004012009642101FB1078A88968
:101E800000F4004040B1322000EBC800B0FBF1F09C
:101E900000F00700044308E0322000EB0810642142
:101EA000B0FBF1F000F00F0004432C81BDE8FF8788
:101EB000001001400014014001468888C0F308006A
:101EC000704770B504460D462946204600F008F8D4
:101ED00000BF80212046FFF728FF0028F9D070BD01
:101EE000C1F308028280704770B506460C46002593
:101EF00005E0615D3046FFF7E4FF681CC5B2605D38
:101F00000028F6D170BD00BFFEE700000148006860
:101F1000704700002400002004490968884203D962
:101F200002490968401A00E00020704724000020A0
:101F300000BF00BF4FF4A060FFF764FAFEF7F4FFA4
:101F4000FFF706FAFFF76CF94FF4E130FFF7C0FD39
:101F5000FEF7B2FFFEF7E4FA4FF47A715320FFF771
:101F60003BFC40F6B8315320FFF7E4FB40F2E73189
:101F70005320FFF799FCFFF725F9FEF7F1FAFFF779
:101F8000F1FAFEF7F1FAFEF7D9FE24E0FEF7DEFDE6
:101F90000020FFF771F9012804D002280AD0032895
:101FA00017D115E001200C4908700C480088FEF795
:101FB000ABFB0FE00AA10E48FFF796FF012007498F
:101FC0000880FEF70BFF4FF4FA70FEF7CDFF01E03B
:101FD00000E000BF00BFD9E7300000203200002041
:101FE00072656D6F766520616C6C2069640D0A0006
:101FF000001001404FF04070E1EE100A7047000001
:102000002020000800000020D0010000C4010008CA
:10201000B0200008D0010020400700002002000886
:1020200011847A030A00091A010203040607080949
:102030005A01042355AA0213202B1F011A0213214F
:102040003A201A12243A0240C17A261A01105A255F
:102050001A1A049AE18A2A1ABB0104B03A361A2ADB
:10206000401AF13A441A3A441AD2322B10021A0A90
:1020700011469C3A48340A11609C7A611AE9347A14
:10208000621AE9363A631A126132032904A13A66E8
:102090001A126332061201B2503A319C0A1164D00E
:1020A0003B6801122D0102030404350607080900EC
:040000050800018965
:00000001FF
