:020000040800F2
:10000000000700202902000807060008FF05000875
:1000100003060008250300086F1100080000000017
:10002000000000000000000000000000E1070008E0
:10003000410400080000000095060008D1080008EF
:10004000430200084302000843020008430200087C
:10005000430200084302000843020008430200086C
:10006000430200084302000843020008430200085C
:10007000430200084302000843020008430200084C
:10008000430200084302000843020008430200083C
:10009000430200084302000843020008430200082C
:1000A000430200084302000843020008430200081C
:1000B000430200084302000843020008430200080C
:1000C00043020008430200084302000843020008FC
:1000D00043020008D10C0008430200084302000854
:1000E00043020008430200084302000843020008DC
:1000F00043020008430200084302000843020008CC
:1001000043020008430200084302000843020008BB
:1001100043020008430200084302000843020008AB
:10012000430200084302000843020008430200089B
:10013000430200084302000843020008430200088B
:10014000430200084302000843020008430200087B
:10015000430200084302000843020008E10D0008C2
:10016000430200084302000843020008430200085B
:10017000430200084302000843020008430200084B
:10018000430200084302000800F002F800F03CF8C7
:100190000AA090E8000C82448344AAF10107DA45E2
:1001A00001D100F031F8AFF2090EBAE80F0013F0F8
:1001B000010F18BFFB1A43F001031847F0100000AD
:1001C00010110000103A24BF78C878C1FAD852073D
:1001D00024BF30C830C144BF04680C6070470000C1
:1001E0000023002400250026103A28BF78C1FBD840
:1001F000520728BF30C148BF0B6070471FB501F0E0
:100200004FF81FBD10B510BD00F031F81146FFF7D3
:10021000F5FF01F015F800F04FF803B4FFF7F2FF17
:1002200003BC00F057F80000094880470948004720
:10023000FEE7FEE7FEE7FEE7FEE7FEE7FEE7FEE796
:10024000FEE7FEE704480549054A064B70470000F3
:10025000D5080008890100080001002000070020DF
:100260000003002000030020704770477047754668
:1002700000F02CF8AE4605006946534620F0070012
:10028000854618B020B5FFF7DDFFBDE820404FF0F0
:1002900000064FF000074FF000084FF0000B21F070
:1002A0000701AC46ACE8C009ACE8C009ACE8C0093D
:1002B000ACE8C0098D46704710B50446AFF3008026
:1002C0002046BDE81040FFF7A8BF00000048704777
:1002D000A000002001491820ABBEFEE72600020066
:1002E000704700001CB50121084600F0D5F9012037
:1002F0008DF8040000208DF806004FF400400090B7
:1003000002208DF8070003208DF805006946044897
:1003100000F0F8F84FF40041014800F067F91CBD07
:100320000000024000BFFEE710B5002400F02AF8EC
:1003300004E0601CC4B2012000F0C2F84FF48071E8
:100340000F4800F04AF908B1642CF2DB642C01DBA1
:10035000012010BD002404E0601CC4B2012000F0A4
:10036000AFF84FF48071064800F037F908B9642CF3
:10037000F2DB642C01DB0120EBE70020E9E7000061
:10038000001402401CB500208DF804004FF480706A
:10039000009000208DF807006946024800F0B2F88E
:1003A0001CBD0000001402401CB501208DF80400A3
:1003B0000002009003208DF8050001208DF8060052
:1003C0006946024800F09EF81CBD0000001402407F
:1003D0001CB50121202000F05FF901208DF80400F8
:1003E0000002009003208DF8050000208DF8060023
:1003F0006946064800F086F84FF48071034800F023
:10040000F7F800F005F8FFF78FFF1CBD001402405D
:1004100010B5FFF7C9FF00224FF48071074800F0C4
:10042000E9F8142000F02EF801221102034800F030
:10043000E1F8282000F044F810BD0000001402404C
:100440007047000000204FF0E02108610948006873
:100450000949B0FBF1F009490860084600684FF40B
:100460007A7148430649086000204FF0E021886116
:10047000704700000000002000127A0014000020E5
:1004800018000020014600200C4A12684A434FF031
:10049000E0235A6100229A6101221A6100BF4FF0E5
:1004A000E022106900F480321AB900F00102002A3B
:1004B000F5D100224FF0E0231A61704718000020A8
:1004C000014600200E4A12684A434FF0E0235A6169
:1004D00000229A611A46126942F001021A6100BFB5
:1004E0004FF0E022106900F480321AB900F00102E6
:1004F000002AF5D100224FF0E0231A617047000076
:1005000014000020F0B50A4600210023002400BF9B
:100510003DE0012505FA01F3156805EA03049C4254
:1005200034D105684F000326BE40B54305601579F8
:100530004E00B5400668354305601579012D02D09F
:100540001579022D16D185684F000326BE40B543AC
:10055000856055794E00B5408668354385604568AD
:1005600001268E40B5434560456896798E40B6B207
:1005700035434560C5684F000326BE40B543C5609E
:10058000D5794E00B540C6683543C560491C102971
:10059000BFD3F0BDF0B5002300244D07ED0E02FAE5
:1005A00005F3CE1000F1200555F826504E07F70E42
:1005B0000F26BE40B543CF1000F1200646F8275065
:1005C000CE1000F1200555F8265045EA0304CE1060
:1005D00000F1200545F82640F0BD024600201369D1
:1005E0000B400BB1012000E00020704741837047B1
:1005F000018370470AB1018300E04183704700BF67
:10060000FEE700BFFEE7704770B5002100230F2210
:10061000C4781CB3174C246804F4E064C4F5E064A7
:10062000C4F30721C1F10404E3B20A4144789C40B9
:10063000E1B28478144021430C07210E0E4C05785A
:100640006155047804F01F050124AC4005786D1154
:10065000AD0005F1E025C5F8004109E0047804F09B
:100660001F050124AC40054D0678761145F826405B
:1006700070BD00000CED00E000E400E080E100E06F
:1006800002490143024A1160704700000000FA0568
:100690000CED00E07047000029B1064A12680243E1
:1006A000044B1A6004E0034A12688243014B1A604B
:1006B000704700003038024029B1064A12680243F0
:1006C000044B1A6004E0034A12688243014B1A602B
:1006D000704700004038024029B1064A12680243C0
:1006E000044B1A6004E0034A12688243014B1A600B
:1006F0007047000044380240F0B500210022002479
:10070000022500260223324F3F6807F00C0121B179
:10071000042905D0082937D105E02E4F076036E0BF
:100720002D4F076033E02A4F3F1F3F68C7F38056C5
:10073000274F3F1F3F6807F03F036EB1264FB7FBBF
:10074000F3F7DFF88CC0ACF1040CDCF800C0CCF39C
:10075000881C07FB0CF40CE01E4FB7FBF3F7DFF827
:1007600070C0ACF1040CDCF800C0CCF3881C07FBB3
:100770000CF4174F3F1F3F68C7F301477F1C7D00F4
:10078000B4FBF5F7076002E0124F076000BF00BF3F
:100790000F4F3F6807F0F0010909104F7A5C0768B6
:1007A000D74047600A4F3F6807F4E051890A0B4F72
:1007B0007A5C4768D7408760054F3F6807F460411F
:1007C000490B064F7A5C4768D740C760F0BD000010
:1007D000083802400024F40040787D012A000020FF
:1007E000704700000CB5002001900090344800686C
:1007F00040F480303249086000BF3148006800F49E
:10080000003000900198401C0190009818B90198A0
:10081000B0F5A04FF1D12A48006800F4003010B1C3
:100820000120009001E0002000900098012846D1AE
:1008300023484030006840F0805021494031086032
:100840002048006840F440401E4908601C480830B9
:1008500000681B49083108600846006840F4004001
:1008600008600846006840F4A05008601648091F58
:100870000860081F006840F08070091F086000BF12
:100880000F48006800F000700028F9D040F20570B1
:100890000E4908600A480830006820F00300084943
:1008A000083108600846006840F00200086000BF98
:1008B00003480830006800F00C000828F8D10CBD8F
:1008C000003802400070004019544007003C0240CC
:1008D0007047000010B51548006840F470001349D7
:1008E00008601348006840F00100114908600020CA
:1008F0000F49083108600E4800680E4908400C494D
:1009000008600D48091D0860081F006820F4802059
:10091000091F0860002006490C310860FFF762FFDC
:100920004FF0006001498039086010BD88ED00E09B
:1009300000380240FFFFF6FE1030002430B58BB0C7
:1009400005460C4601212020FFF7A6FE01210802E2
:10095000FFF7B2FE092211462148FFF71BFE4FF4B4
:100960000070099002208DF8280000208DF82A00E0
:1009700003208DF8290001208DF82B0009A91848C3
:10098000FFF7C0FD0020ADF82000A8B2ADF81800B8
:1009900007940020ADF81A0006A9124800F056F995
:1009A0006020ADF804000120ADF806000020ADF88D
:1009B000100001A90B4800F09DF80821094800F03B
:1009C000D7F80121074800F07DF80021054800F024
:1009D00038F90121034800F081F80BB030BD000068
:1009E000001402400020004030B58BB005460C4694
:1009F00001210420FFF760FE01210820FFF74CFED3
:100A000002220C212D48FFF7C5FD02220D212B48A3
:100A1000FFF7C0FD02208DF8280000208DF82A0085
:100A20004FF48050099003208DF8290001208DF8A3
:100A30002B0009A92148FFF765FD4FF400500990EC
:100A400009A91E48FFF75EFD0020ADF82000A8B2FE
:100A5000ADF8180007940020ADF81A0006A9184850
:100A600000F0F4F86020ADF804000120ADF80600B5
:100A70000020ADF8100001A9114800F03BF8082152
:100A80000F4800F075F801A90D4800F07BF8082127
:100A90000B4800F0C9F80121094800F013F80021C3
:100AA000074800F0CEF80021054800F0CCF80121FD
:100AB000034800F013F80BB030BD0000000C0240FA
:100AC0000008004021B1028842F08002028004E068
:100AD00002884FF67F731A400280704721B1028866
:100AE00042F00102028004E002884FF6FE731A40D1
:100AF0000280704770B5002400220023058C4FF659
:100B0000FE7635400584028C8388048B4FF68F7502
:100B10002C40B51E2C400D882C43751E2A408D8913
:100B20002A434D882A43104DA84202D00F4DA842B7
:100B300013D14FF6F7752A40CD892A434FF6FB753E
:100B40002A408D882A434FF6FF652B404FF6FF550C
:100B50002B400D8A2B434D8A2B43838004838D6861
:100B60004563028470BD00000000014000040140A4
:100B70000A460021018B4FF6F77319401143018398
:100B80007047000070B5002400220023058C4FF64A
:100B9000EF7635400584028C8388048B48F6FF7518
:100BA0002C404FF6FF452C400D884FF6FF7606EAA5
:100BB00005252C434FF6DF752A408D8906EA051579
:100BC0002A434D8806EA05152A43154DA84202D04E
:100BD000144DA8421DD14FF67F752A40CD894FF69E
:100BE000FF7606EA05152A434FF6BF752A408D8821
:100BF00006EA05152A434FF6FF352B404FF2FF75E5
:100C00002B400D8A06EA85052B434D8A06EA8505A9
:100C10002B43838004838D688563028470BD00004C
:100C200000000140000401400A460021018B4FF200
:100C3000FF7319404FF6FF7303EA02231943018340
:100C4000704741637047816370470000002202884B
:100C5000184B98420ED0184B98420BD0B0F1804FF1
:100C600008D0164B984205D0154B984202D0154B30
:100C7000984204D14FF68F731A404B881A43124B97
:100C8000984207D0114B984204D04FF6FF431A40C8
:100C90000B891A4302804B68C3620B880385054B9E
:100CA000984202D0044B984201D18B7A03860123EB
:100CB00083827047000001400004014000040040AE
:100CC00000080040000C00400010004000140040EC
:100CD00010B540F225510E4800F068F9012811D1F5
:100CE0000B4800F01DFA0B490B4A126888540A4859
:100CF0000068401C0849086008460068322801D195
:100D00000020086040F22551014800F027F910BD8D
:100D1000001001403C0000201C00002010B588B0ED
:100D2000044601211020FFF7D7FC01210846FFF7F8
:100D3000B3FC072209212848FFF72CFC07220A21CF
:100D40002548FFF727FC02208DF81C0000208DF8B5
:100D50001E0003208DF81D004FF40070069006A9B8
:100D60001D48FFF7CFFB02208DF81C0000208DF8F6
:100D70001F004FF48060069006A91748FFF7C2FBDA
:100D800002940020ADF814000C20ADF812000020F1
:100D9000ADF80C00ADF80E00ADF8100002A90F4838
:100DA00000F054F9012240F225510C4800F028F9D6
:100DB00025208DF8040001208DF8070000208DF813
:100DC00006008DF8050001A8FFF71EFC012103486D
:100DD00000F0D3F808B010BD000002400010014040
:100DE00010B540F22551284800F0E0F8012845D11F
:100DF000254800F095F9254908702548007878B90C
:100E000008460078552839D10120214908701F482B
:100E1000007820490870002048708870C8702DE064
:100E20001B480078012807D102201949087017488B
:100E300000781849487021E01548007802280AD146
:100E40000320134908701148007812498870012066
:100E50001149087012E00E480078032807D10020DD
:100E60000B490870094800780A49C87006E000205C
:100E700007490870084908700649087040F2255172
:100E8000014800F06BF810BD001401402400002060
:100E9000230000206E0000202200002010B588B042
:100EA000044601210420FFF7F7FB01212020FFF772
:100EB00013FC082206212748FFF76CFB08220721B4
:100EC0002448FFF767FB4020069002208DF81C00A5
:100ED00000208DF81E0003208DF81D0006A91D4876
:100EE000FFF710FB8020069002208DF81C000020E8
:100EF0008DF81F0006A91748FFF704FB02940C2089
:100F0000ADF812000020ADF81400ADF80C00ADF8FB
:100F10001000ADF80E0002A90F4800F097F8472026
:100F20008DF8040000208DF8050001208DF80600E2
:100F30008DF8070001A8FFF767FB012240F2255159
:100F4000054800F05DF80121034800F016F808B0EC
:100F500010BD0000000802400014014010B500223E
:100F6000002340F66A14A14200D100BF0A120124F6
:100F70009440A3B2DC43048010BD21B1828942F4C5
:100F80000052828104E082894DF6FF731A4082810B
:100F9000704702460020B1F5007F00D100BF1388E2
:100FA0000B400BB1012000E00020704770B50246F5
:100FB000002400230025002040F66A16B14200D12B
:100FC00000BFC1F3421501F01F03012606FA03F327
:100FD000012D02D19689334006E0022D02D1168AF6
:100FE000334001E0968A33400C12012606FA04F4DD
:100FF0001688344013B10CB1012000E0002070BD10
:10100000F0B50346002400260025002040F66A17AC
:10101000B94200D100BF1846C1F3421401F01F06C7
:10102000012707FA06F5012C01D10C3004E0022C4F
:1010300001D1103000E014301AB107682F43076067
:1010400002E00768AF430760F0BD00002DE9FF47ED
:1010500005460E460024A14600BFA046B08900B157
:1010600000BF2C8A24F44054F08804432C82AC89BD
:1010700041F20C608443B088318908437189084388
:101080000443AC81AC8A24F44074B0890443AC823C
:101090006846FFF731FB2048854202D01F48854251
:1010A00002D1DDF80C9001E0DDF80890A88900F489
:1010B000004040B109EBC90000EB0910316849005C
:1010C000B0FBF1F707E009EBC90000EB091031684C
:1010D0008900B0FBF1F76420B7FBF0F004012009B0
:1010E000642101FB1078A88900F4004040B132204F
:1010F00000EBC800B0FBF1F000F00700044308E08B
:10110000322000EB08106421B0FBF1F000F00F007A
:1011100004432C81BDE8FF8700100140001401400A
:1011200001468888C0F30800704770B504460D4634
:101130002946204600F008F800BF80212046FFF72E
:1011400028FF0028F9D070BDC1F3080282807047E3
:1011500070B506460C46002505E0615D3046FFF798
:10116000E4FF681CC5B2605D0028F6D170BD00BF09
:10117000FEE7000010B500F02BF8062821D2DFE8CA
:1011800000F02003090E141A4FF4FA710E48FFF70D
:1011900058FD17E000210C48FFF753FD12E0012233
:1011A00004210A48FFF726FA0CE00122082107482B
:1011B000FFF720FA06E0012210210448FFF71AFA8F
:1011C00000E000BF00BF10BD002000400010024042
:1011D00018480078012829D117480078552825D1CA
:1011E0001548407802281ED113488078062818D266
:1011F000DFE800F01703070B0F1301200F490870F9
:1012000010E002200D4908700CE003200B49087023
:1012100008E004200949087004E005200749087027
:1012200000E000BF00BF00200249087003480078BA
:1012300070470000220000206E00002026000020E1
:1012400000BF00BF4FF4A060FFF71AFAFFF7FAF8EB
:101250004FF4E130FFF762FD4FF4E130FFF71EFE7F
:10126000FFF7B6F8FFF73EF84FF47A715320FFF717
:1012700065FB4FF47A715320FFF7B6FB03A10748D3
:10128000FFF766FF01E0FFF775FFFCE75465737435
:1012900020566964656F0D0A0000000000100140CF
:1012A0004FF04070E1EE100A70470000CC120008C9
:1012B000000000203C000000C401000808130008E2
:1012C0003C000020C4060000E0010008007A030A88
:1012D00000000000000000000102030406070809E6
:1012E00000000000000000000000000000000000FE
:1012F00000000000000000000000010203040102E1
:081300000304060708090000C0
:040000050800018965
:00000001FF
