:020000040800F2
:1000000000070020410200087919000817170008AE
:10001000751900083B140008B32300080000000015
:10002000000000000000000000000000551B000858
:100030005915000800000000091A0008451C0008B6
:100040005B0200085B0200085B0200085B0200081C
:100050005B0200085B0200085B0200085B0200080C
:100060005B0200085B0200085B0200085B020008FC
:100070005B0200085B0200085B0200085B020008EC
:100080005B0200085B0200085B0200085B020008DC
:100090005B0200085B0200085B0200085B020008CC
:1000A0005B0200085B0200085B0200085B020008BC
:1000B0005B0200085B0200085B0200085B020008AC
:1000C0005B0200085B0200085B0200085B0200089C
:1000D0005B020008452000085B0200085B02000884
:1000E0005B0200085B0200085B0200085B0200087C
:1000F0005B0200085B0200085B0200085B0200086C
:100100005B0200085B0200085B0200085B0200085B
:100110005B0200085B0200085B0200085B0200084B
:100120005B0200085B0200085B0200085B0200083B
:100130005B0200085B0200085B0200085B0200082B
:100140005B0200085B0200085B0200085B0200081B
:100150005B0200085B0200085B02000855210008F2
:100160005B0200085B0200085B0200085B020008FB
:100170005B0200085B0200085B0200085B020008EB
:100180005B0200085B02000800F002F800F049F88A
:100190000AA090E8000C82448344AAF10107DA45E2
:1001A00001D100F03EF8AFF2090EBAE80F0013F0EB
:1001B000010F18BFFB1A43F001031847DC290000A8
:1001C000FC290000103A24BF78C878C1FAD8520739
:1001D00024BF30C830C144BF04680C6070470000C1
:1001E0000023002400250026103A28BF78C1FBD840
:1001F000520728BF30C148BF0B607047662902F024
:100200007E84002070471FB502F06FFC00F028FBD1
:1002100004000020002102F041F9E0601FBD10B58C
:1002200010BD00F019FC1146FFF7EDFF02F0E2F8F7
:1002300000F037FC03B4FFF7F2FF03BC00F07AFCD8
:100240000948804709480047FEE7FEE7FEE7FEE76A
:10025000FEE7FEE7FEE7FEE7FEE7FEE704480549A6
:10026000054A064B70470000491C00088901000838
:1002700000010020000700200003002000030020F0
:100280000FB41CB5074B06AA7B446946009005983D
:1002900000F0CDFA0020694600F0DCFA1CBC5DF8E5
:1002A00014FB0000C905000070B5044685690068AC
:1002B000C10601D5302600E02026C00707D070BD5A
:1002C000D4E9012130469047206A401C20626D1E0F
:1002D000F6D570BD70B5044685690078C00707D1B2
:1002E00070BDD4E9012120209047206A401C206283
:1002F0006D1EF6D570BD2DE9F0474FF0000A894616
:100300000446C0F820A02046E1688847002876D03F
:10031000252806D0D4E901219047206A401C20629C
:10032000F1E7E168204600258847C4F81CA006468E
:100330000027C4F818A02A2E09D0304602F053F83E
:1003400038B304EB8708303EC8F8186019E059F854
:10035000041B204604EB87029161E1688847012F66
:10036000064618D1E069002820DA25F020051DE0B6
:10037000D8F8180000EB800006EB40003038C8F8D1
:1003800018002046E1688847064602F02CF800284D
:10039000EED1012F0AD02E2E08D12046E1688847E1
:1003A0007F1C0646022F45F02005C4DBA06900280B
:1003B00003DA404245F00105A061E80701D025F0CD
:1003C0001005B6B1A6F14100192802D8203645F42F
:1003D00000654A463146204625604D46FFF70EFF30
:1003E00058B1012806D0ED1D25F0070000F10809DD
:1003F00089E704E005F1040985E730468AE7206AC9
:10040000BDE8F08770477047704770472DE9FF4F90
:100410000C461E464FF0FF378BB0D2E90001DDF8E5
:1004200060800A908A46C1F30A5505B93D4600210D
:1004300008464FF00000BAF1000F00F4400005DA62
:1004400000EB80004FF4400101EA50004FEA905960
:10045000B9F1010F00DDB9460A9850EA4A000ED002
:1004600044F61050A5F2FF3545432F14B8F1000FA4
:100470001ED07542291E1EDDC9F100021CE0B8F134
:10048000010F4FF0000001D0302103E0F24305E0FE
:100490002154401CB042FBDB304600220021215495
:1004A0000B99C1F80880C1E900200FB0BDE8F08FBA
:1004B000BD1B6D1CDEE74A4600DA694206A800F063
:1004C00059FA06AB93E8070003AB83E807005046F0
:1004D0000A9900F036FB8DE80700A0F500501F38A0
:1004E00000900398002D09DD42F21F014A4608449E
:1004F00003A90390684600F095FD08E0A0F50050C0
:100500004A461F3803A90390684600F09FFD8DE816
:1005100007000004000C03D04FF0FF30410800E05A
:100520001046B8F1000F03D00022009215461EE0DD
:10053000751E05D400F098F9303262556D1EF9D55C
:10054000B3460122084302D000227F1C04E0207839
:10055000302801D100227F1E002A099786D01DE095
:10056000112D07DA00F080F9303262556D1C50EA27
:100570000102F5D1084302D00098C8B10EE0002175
:10058000681E05E0235C625C63542254401E491CD3
:100590008142F7DBAB46A81B401E0990002004F8FF
:1005A0000B000B98099AC0F80880C0E9002B7CE783
:1005B00011264FF0000859E72DE9F04F8846044610
:1005C000D21D22F0070191B0D1E90001CDE90A0165
:1005D00001F0F1FE02460B98C00F01D02D2007E07C
:1005E0002068810701D52B2002E0202101EAC0000C
:1005F000032A099001D0072A05DB0346414620461D
:1006000000F078F90BE12078800601D5E06900E080
:100610000620B8F1650F814606D0B8F1660F18D0F4
:10062000B8F1670F70D131E00020B9F1110F0090DF
:1006300001DB112301E009F101030AAA01A90CA8B9
:10064000FFF7E4FEDDE90C70002609F101058346A1
:1006500047E001204B4600904FF000470AAA01A94D
:100660000CA8FFF7D3FEDDE90DB00C995D4600261E
:1006700010B909F101000D18B9EB050003D4C0F160
:10068000FF3609F10105A5EB09002BE0B9F1010FD7
:1006900001DA4FF001090020B9F1110F009048462E
:1006A00001DD112300E003460AAA01A90CA8FFF707
:1006B000ADFEDDE90C704D4600268346207800072C
:1006C0000AD4AB4500DA5D4601A8012D04DD4119CD
:1006D00011F8011C302907D04F4502DA17F1040F39
:1006E00004DA012082460FE06D1EEEE7002F02DCE7
:1006F000ED1B3E4403E0781CA84200DD7D1CB81BC6
:1007000000F1010A4FF000472078000703D4AA4502
:1007100001DB4FF0FF3A0021B7F1004F0DF1430824
:100720008DF8431024D002202B23002F01DA7F42C2
:100730002D230A21021EA0F1010000DC5FB197FB0E
:10074000F1FC97FBF1F201FB1C7C17460CF1300C1D
:1007500008F801CDEEE7A8F1010003702188090532
:1007600001D5452100E06521A0F1010800F8011C38
:1007700009980FA9A1EB0807FF1D00B1012041193D
:1007800001EBEA70A1693844081A401EA061207884
:10079000C00602D42046FFF787FD099828B1D4E9A6
:1007A00001219047206A401C20622078C00622D593
:1007B0002046FFF779FD1EE0002E04DBB34502DD85
:1007C00001A8805D00E03020D4E901219047206A33
:1007D000401C2062761CAAF101005FEA000A0AD1DF
:1007E00000F03EF8C0680168405CD4E90121904700
:1007F000206A401C2062281EA5F10105DCDC07E010
:10080000D4E9012118F8010B9047206A401C2062AE
:10081000381EA7F10107F3DC2046FFF75BFD03203C
:1008200011B043E601694A1C02610878704700B5BF
:100830008FB0CDE901310021059105497944CDE919
:10084000031011466846FFF756FD0FB000BD0000CB
:10085000E5FFFFFF0A6802F8010B0A60704700001D
:1008600000487047BC00002030B5B0F10A024FEAE2
:10087000900E71F100034EEA817EB0EB0E0061EB49
:1008800091014FEA101E4EEA017E10EB0E0041EB83
:1008900011114FEA102E4EEA016E10EB0E0041EBE3
:1008A00011214FEA104E4EEA014E10EB0E0041EBC3
:1008B0001141401841F100014FEAD00040EA417077
:1008C0004FEAD10110EB80054FEA810444EA9074AD
:1008D00044EB01046D1944EB0404521BA3414FF097
:1008E000000348BF0A3200D530BD401C41F1000171
:1008F00030BD00002DE9F0411F4604460326016883
:10090000072A01F4006004DB08B116A505E016A56E
:1009100003E008B115A500E015A521F01000206046
:10092000A069C01EA0610FB1401EA0612046FFF764
:10093000BBFC4FB1D4E9012138469047206A401CE6
:100940002062C01C206206E0206AFAE7D4E9012197
:1009500015F8010B9047761EF8D22046FFF7BAFC37
:10096000BDE8F0814E414E006E616E00494E46007A
:10097000696E66002DE9F047814616468AB0334815
:1009800078440DC88DE80D0030487844801C03ACD5
:100990000DC884E80D0041F69B300844372190FBD8
:1009A000F1F290FBF1F5A5F1800501FB12041B3C6F
:1009B00002D56442012000E00020DFF890A08046CC
:1009C0000027FA44AAF1BE0A0DE0E00709D032463A
:1009D000684607EB47010AEB810100F037FB8DE821
:1009E000070064107F1C002CEFD1184F7F44AC3FF0
:1009F00018E0E80714D007EB04100DF1180A90E88E
:100A00000E008AE80E00C068F04201D198190890E3
:100A1000324606A903A800F019FB03AB83E80700E0
:100A20006D10641C002DE4D132466946B8F1000F08
:100A300003A802D000F0F6FA01E000F007FBC9E9D4
:100A40000001C9F808200AB0BDE8F087FC210000C9
:100A5000004870479C0000207546FFF7F9FFAE463E
:100A600005006946534620F00700854618B020B5BA
:100A7000FFF7F4FBBDE820404FF000064FF0000701
:100A80004FF000084FF0000B21F00701AC46ACE836
:100A9000C009ACE8C009ACE8C009ACE8C0098D46A3
:100AA000704710B50446AFF300802046BDE8104003
:100AB000FFF7C0BB4FF0013C50F8042B51F8043B4A
:100AC0009A4221D1A2EB0C03934313EACC1317D122
:100AD00050F8042B51F8043B9A4215D1A2EB0C03B9
:100AE000934313EACC130BD150F8042B51F8043B79
:100AF0009A4209D1A2EB0C03934313EACC13DBD047
:100B00004FF00000704700BFD01A01BAB1FA81F16E
:100B100001F0180122FA01F0CB40C1F12001DBB253
:100B2000C0B2C01A2CFA01F3D11A914311EAC311D1
:100B3000E6D1704701491820ABBEFEE7260002004F
:100B400070475FEA400C08BF91F0000F4FEA8C231A
:100B50004FEAC12243EA51514FEA1C5018BF00F539
:100B6000F0404FEA300018BF41F000415FEA6C5C92
:100B700000F02980BCF1FF3F08BF40F08040704783
:100B8000130C06BF12044FF0100C4FF0000C130EA4
:100B900004BF12020CF1080C130F04BF12010CF178
:100BA000040C930F04BF92000CF1020CD30F04BF8E
:100BB00052000CF1010C11464FF00002A0F11F0091
:100BC000A0EB0C00704711F0004F08BF704731F0E8
:100BD00000413FF4D5AF0B0C06BF09044FF0100CD9
:100BE0004FF0000C0B0E04BF09020CF1080C0B0FA8
:100BF00004BF09010CF1040C8B0F04BF89000CF138
:100C0000020CCB0F04BF49000CF1010CCCF1200306
:100C1000A0EB0C0022FA03F302FA0CF241EA030102
:100C200000F10100704720F07F4C80EA030023F0C0
:100C30007F47ACEB070303F57C5300F0004003F162
:100C4000FF032DE980494FEA154B09B44FEA1443DD
:100C500025EA0B4E24EA03480FF2042606EB13277D
:100C600049083E785FEA320203FB0667C7F50007D2
:100C700007FB06F64FEA54374FEAD64606F102065E
:100C800007FB066CCCF1005C4FEA1C472CEA074CD2
:100C900007FB06F40CFB06F504EB15464FEA961627
:100CA00034BF00204FF000404FEAD13706FB07FC6D
:100CB0004FEA1C4C0CFB0BF7D21B03FB0CF761EB50
:100CC00007010CFB0EF7B0EB074072EB17420CFB71
:100CD00008F734BFA2EB0742B2EB074261EB1741C2
:100CE0004FEA0C444FEA910706FB07FC4FEA1C4C05
:100CF0000CFB0BF7B0EBC74072EB573203FB0CF762
:100D000034BFA2EBC742B2EBC74261EB57310CFBD9
:100D10000EF7B0EBC70072EB57720CFB08F734BF4D
:100D2000A2EBC702B2EBC70261EB5771039F4FEA18
:100D3000816141EA921104EBCC044FEAD1374FEACA
:100D4000826206FB07FC42EA90124FEA80604FEA9B
:100D50001C4C0CFB0BF7D21B03FB0CF761EB0701E0
:100D60000CFB0EF7B0EB074072EB17420CFB08F7D9
:100D700034BFA2EB0742B2EB074261EB17414FEAE7
:100D80008C554FEA910704EB9C2406FB07FC4FEAC5
:100D90001C4C0CFB0BF7B0EBC74072EB573203FB5C
:100DA0000CF734BFA2EBC742B2EBC74261EB57313D
:100DB0000CFB0EF7B0EBC70072EB57720CFB08F799
:100DC00034BFA2EBC702B2EBC70261EB577115EB60
:100DD0004C254FEA816141EA92114FEA82624FEA63
:100DE000D13742EA901206FB07FC44F100044FEAB7
:100DF00080604FEA1C4C0CFB0BF7D21B03FB0CF77B
:100E000061EB07010CFB0EF7B0EB074072EB1742EA
:100E10000CFB08F734BFA2EB0742B2EB074261EBD1
:100E2000174115EB1C154FEA813141EA92414FEA17
:100E3000823242EA90424FEA80304FEA0C7644F127
:100E4000000448EA03434EEA0B484FF0000EB2EBB1
:100E5000080C71EB030724BF624639464EEB0E0EB9
:100E60004FF0000B0018524149414BEB0B0BB2EB1A
:100E7000080C71EB03077BF1000B24BF6246394677
:100E80004EEB0E0E4FF0000B0018524149414BEB58
:100E90000B0BB2EB080C71EB03077BF1000B24BFCB
:100EA000624639464EEB0E0E51EA020718BF46F075
:100EB000010616EB0E7655F1000254F1000103D540
:100EC000BDE88901BDE80088BDE88901BDE80048AA
:100ED000B619524141EB0101A3F101037047808033
:100EE0007F7E7D7C7B7A7978777676757473727184
:100EF00071706F6E6E6D6C6C6B6A6A69686867663C
:100F000066656464636362616160605F5F5E5E5DCD
:100F10005D5C5C5B5B5A5A59595858575756565541
:100F200055555454535352525251515050504F4FA3
:100F30004F4E4E4D4D4D4C4C4C4B4B4B4A4A4A49F3
:100F40004949484848474747474646464545454436
:100F50004444444343434342424242414141002BC3
:100F600026D4770021D01CB54FEA370703B44FF0E1
:100F700010004FF010014FF000000FBCBDE8104012
:100F80000BF1010BBBF1010F08BF5FEA170722BF8E
:100F900012F1010211F101014FF0004143F1000390
:100FA00000F0004043EA00007047F9D35708DAE741
:100FB00046EA064613F1400F4FEA16461FDD13F1CD
:100FC000200FDFBF16430A46002120335B42C8D002
:100FD000C3F1200746EA064602FA07F74FEA16462B
:100FE00046EA0706C3F1200722FA03F201FA07F7DF
:100FF00021FA03F14FF0000342EA0702B1E746EAA3
:10100000020646EA06464FEA164646EA0106BCBF15
:1010100046EA0646360C4FF000034FF000024FF050
:1010200000019EE72DE9C048934630B491E83800AE
:1010300007C831EA400C48BF34EA430C03D5FFF738
:10104000F2FDFFF78CFFF0BCBDE800882DE9C04839
:10105000934630B491E8380007C810F0804F08BFBD
:1010600013F0804F03D100F005F8FFF778FFF0BCD4
:10107000BDE8008820F07F4780EA030023F07F4C22
:1010800007EB0C03A3F57C5300F00040A3F1FE0333
:1010900092F0000F00F0B38095F0000F00F0778021
:1010A0002DE901494FEA11404FEA144621EA004870
:1010B00000FB06FC24EA064708FB06F607FB08F8D7
:1010C00000FB07F718EB06484CEB164C4FEA124BA7
:1010D00018EB07484FEA15464CEB174022EA0B4E37
:1010E0000BFB06FC25EA06470EFB06F607FB0EFE89
:1010F0000BFB07F71EEB064E4CEB164C4FF00006B1
:101100001EEB074E4CEB174B18EB0B0840F10000A1
:1011100018EB0E0B58EB000840F100008F1A4FF04F
:1011200000013CBFC943661B14BFB5EB040C002192
:101130003CBFC943F61B4FEA17444EEA8E0E27EA1E
:1011400004454FEA1C4704FB07622CEA074C05FBE9
:1011500007F70CFB05F604FB0CFC16EB074642EB0D
:10116000174216EB0C4642EB1C421BEB060658EBF3
:101170000202414146EA9E0601D5BDE80189B61941
:10118000524141EB0101A3F10103BDE801894FEA9E
:1011900014454FEA114724EA054621EA074C05FBAE
:1011A00007F406FB07F70CFB06F105FB0CFC11EB43
:1011B000074144EB17444FEA124711EB0C4144EB53
:1011C0001C4422EA074C05FB07F206FB07F70CFB61
:1011D00006F605FB0CFC16EB074642EB174216EB36
:1011E0000C4642EB1C456A1854F1000148BF704799
:1011F000B619524141EB0101A3F10103704795F08B
:10120000000F37D04FEA11424FEA144721EA024655
:1012100024EA074C02FB07F106FB07F70CFB06F478
:1012200002FB0CFC14EB074441EB17414FEA154756
:1012300014EB0C4441EB1C4125EA074C02FB07F57B
:1012400006FB07F70CFB06F602FB0CFC16EB074649
:1012500045EB174516EB0C4645EB1C42121951F1B4
:10126000000148BF7047B619524141EB0101A3F19B
:10127000010370474FEA14454FEA114724EA054637
:1012800021EA074C05FB07F106FB07F70CFB06F20A
:101290004FF0000605FB0CFC12EB074241EB174137
:1012A00012EB0C4251EB1C4148BF7047921841EBC6
:1012B0000101A3F1010370471CB50121084600F0AC
:1012C000A5FB01208DF8040000208DF806004FF4E6
:1012D0000040009002208DF8070003208DF80500E3
:1012E0006946044800F09AF94FF40041014800F0C3
:1012F00009FA1CBD0000024010B52DED0A8B00F06C
:1013000069F81348006801F07FFB41EC1A0B1149A2
:101310000978104A5278881801F060FA41EC1C0BE9
:101320009FED0D0B53EC102B01F000F941EC1B0B62
:1013300053EC1A2B01F06AFA41EC190B01F0C4F8D6
:1013400008EE100AB0EE480ABDEC0A8B10BD000092
:101350002000002024000020333333333333F33FA5
:1013600010B50446012000F051F8072000F04EF8B7
:10137000062C28D2DFE804F003090F151B21B7EE75
:10138000000A134880ED000A1DE0B6EE000A10487E
:1013900080ED000A17E0B1EE000A0D4880ED000A6A
:1013A00011E0B7EE000A0A4880ED000A0BE0B6EE45
:1013B000000A074880ED000A05E0B1EE000A044883
:1013C00080ED000A00BF00BF232000F01FF810BD11
:1013D0002000002010B500F063FA472000F02EFA3C
:1013E00000BF00F095FA0028FBD100F0FFF9064994
:1013F000087000F093F900F0F9F90349487000F023
:10140000D7F900F067FA10BD2400002010B504469B
:1014100000F046FA462000F011FA00BF00F078FA1A
:101420000028FBD1204600F009FA00BF00F070FA56
:101430000028FBD100F04EFA10BD00BFFEE700000F
:1014400010B5002400F02AF804E0601CC4B20120AA
:1014500000F0C2F84FF480710F4800F04AF908B16B
:10146000642CF2DB642C01DB012010BD002404E0BD
:10147000601CC4B2012000F0AFF84FF48071064840
:1014800000F037F908B9642CF2DB642C01DB012091
:10149000EBE70020E9E70000001402401CB5002043
:1014A0008DF804004FF48070009000208DF8070044
:1014B0006946024800F0B2F81CBD0000001402406A
:1014C0001CB501208DF804000002009003208DF867
:1014D000050001208DF806006946024800F09EF8DC
:1014E0001CBD0000001402401CB50121202000F0AA
:1014F0008DFA01208DF804000002009003208DF881
:10150000050000208DF806006946064800F086F8C0
:101510004FF48071034800F0F7F800F005F8FFF78A
:101520008FFF1CBD0014024010B5FFF7C9FF002259
:101530004FF48071074800F0E9F8142000F02EF80D
:1015400001221102034800F0E1F8282000F044F8DD
:1015500010BD0000001402407047000000204FF052
:10156000E0210861094800680949B0FBF1F0094928
:101570000860084600684FF47A71484306490860DD
:1015800000204FF0E021886170470000000000203B
:1015900000127A00140000201800002001460020EC
:1015A0000C4A12684A434FF0E0235A6100229A61C4
:1015B00001221A6100BF4FF0E022106900F480326E
:1015C0001AB900F00102002AF5D100224FF0E02301
:1015D0001A61704718000020014600200E4A126868
:1015E0004A434FF0E0235A6100229A611A46126979
:1015F00042F001021A6100BF4FF0E022106900F4CE
:1016000080321AB900F00102002AF5D100224FF011
:10161000E0231A617047000014000020F0B50A466C
:1016200000210023002400BF3DE0012505FA01F35D
:10163000156805EA03049C4234D105684F0003266F
:10164000BE40B543056015794E00B5400668354388
:1016500005601579012D02D01579022D16D1856806
:101660004F000326BE40B543856055794E00B54016
:10167000866835438560456801268E40B5434560E0
:10168000456896798E40B6B235434560C5684F00CF
:101690000326BE40B543C560D5794E00B540C66847
:1016A0003543C560491C1029BFD3F0BDF0B50023F8
:1016B00000244D07ED0E02FA05F3CE1000F12005CF
:1016C00055F826504E07F70E0F26BE40B543CF10F3
:1016D00000F1200646F82750CE1000F1200555F8FD
:1016E000265045EA0304CE1000F1200545F82640B7
:1016F000F0BD0246002013690B400BB1012000E051
:101700000020704741837047018370470AB101830D
:1017100000E04183704700BFFEE7000010B50221E2
:101720000B48FFF7EFFF4FF480610A48FFF7EAFF2D
:101730000220FFF751FF02210548FFF7E5FF0520D2
:10174000FFF74AFF02210248FFF7DCFF10BD00004F
:1017500000040240001402401CB50121222000F0C8
:1017600055F90220009001208DF8040000208DF82A
:10177000060003208DF8050001208DF8070069465A
:101780000948FFF74BFF4FF4806000906946074817
:10179000FFF744FF02210448FFF7B6FF4FF48061D2
:1017A0000248FFF7B1FF1CBD0004024000140240D4
:1017B00010B502210B48FFF7A5FF4FF480610A48DE
:1017C000FFF7A2FF0220FFF707FF02210548FFF7FE
:1017D0009BFF0520FFF700FF02210248FFF792FF61
:1017E00010BD0000000402400014024070B5002546
:1017F000002004461AE002210E48FFF783FF022072
:10180000FFF7EAFE02210B48FFF77EFF6806050E90
:101810004FF480610848FFF76CFF08B1681CC5B23F
:101820000120FFF7D9FE601CC0B20446082CE2DBA1
:1018300070BD0000000402400014024070B5044670
:1018400002211548FFF75EFF002522E004F080002A
:1018500028B14FF480611148FFF756FF04E04FF4C0
:1018600080610E48FFF74EFF6006040E0220FFF76E
:10187000B3FE02210848FFF747FF0220FFF7ACFE46
:1018800002210548FFF73EFF0220FFF7A5FE681C76
:10189000C5B2082DDADB70BD00040240001402401E
:1018A00010B502210948FFF72FFF4FF48061084867
:1018B000FFF72AFF0520FFF78FFE4FF480610448F1
:1018C000FFF720FF0520FFF787FE10BD0004024050
:1018D0000014024010B502210B48FFF713FF4FF42C
:1018E00080610A48FFF70EFF02210748FFF70CFF4F
:1018F0000520FFF771FE4FF480610448FFF704FFF5
:101900000520FFF769FE10BD0004024000140240EC
:1019100010B5002402211548FFF7F4FE0120FFF75F
:101920005BFE4FF480611248FFF7EEFE0120FFF7E7
:1019300053FE02210D48FFF7E7FE0120FFF74CFEA2
:1019400007E0601CC4B2FA2C03DBFFF7C3FF0120E1
:1019500010BD4FF480610648FFF7CBFE0028F0D1A0
:1019600002210248FFF7CEFE0020F1E7000402400A
:101970000014024000BFFEE77047000070B5002170
:1019800000230F22C4781CB3174C246804F4E064CD
:10199000C4F5E064C4F30721C1F10404E3B20A41D1
:1019A00044789C40E1B28478144021430C07210E16
:1019B0000E4C05786155047804F01F050124AC40F5
:1019C00005786D11AD0005F1E025C5F8004109E08D
:1019D000047804F01F050124AC40054D067876110B
:1019E00045F8264070BD00000CED00E000E400E08A
:1019F00080E100E002490143024A116070470000A3
:101A00000000FA050CED00E07047000029B1064A1D
:101A100012680243044B1A6004E0034A12688243CE
:101A2000014B1A60704700003038024029B1064A65
:101A300012680243044B1A6004E0034A12688243AE
:101A4000014B1A60704700004038024029B1064A35
:101A500012680243044B1A6004E0034A126882438E
:101A6000014B1A607047000044380240F0B5002175
:101A700000220024022500260223324F3F6807F08F
:101A80000C0121B1042905D0082937D105E02E4FDA
:101A9000076036E02D4F076033E02A4F3F1F3F6855
:101AA000C7F38056274F3F1F3F6807F03F036EB1D3
:101AB000264FB7FBF3F7DFF88CC0ACF1040CDCF871
:101AC00000C0CCF3881C07FB0CF40CE01E4FB7FBE6
:101AD000F3F7DFF870C0ACF1040CDCF800C0CCF315
:101AE000881C07FB0CF4174F3F1F3F68C7F30147E3
:101AF0007F1C7D00B4FBF5F7076002E0124F076022
:101B000000BF00BF0F4F3F6807F0F0010909104FF9
:101B10007A5C0768D74047600A4F3F6807F4E05196
:101B2000890A0B4F7A5C4768D7408760054F3F684A
:101B300007F46041490B064F7A5C4768D740C7609D
:101B4000F0BD0000083802400024F40040787D0118
:101B500026000020704700000CB500200190009086
:101B60003448006840F480303249086000BF314892
:101B7000006800F4003000900198401C019000982B
:101B800018B90198B0F5A04FF1D12A48006800F4C7
:101B9000003010B10120009001E00020009000987A
:101BA000012846D123484030006840F08050214948
:101BB000403108602048006840F440401E490860F9
:101BC0001C48083000681B49083108600846006856
:101BD00040F4004008600846006840F4A0500860E7
:101BE0001648091F0860081F006840F08070091F30
:101BF000086000BF0F48006800F000700028F9D0AE
:101C000040F205700E4908600A480830006820F06C
:101C100003000849083108600846006840F00200E7
:101C2000086000BF03480830006800F00C00082876
:101C3000F8D10CBD00380240007000401954400734
:101C4000003C02407047000010B51548006840F4A1
:101C50007000134908601348006840F00100114902
:101C6000086000200F49083108600E4800680E49DE
:101C700008400C4908600D48091D0860081F0068ED
:101C800020F48020091F0860002006490C310860FC
:101C9000FFF762FF4FF0006001498039086010BD16
:101CA00088ED00E000380240FFFFF6FE103000240F
:101CB00030B58BB005460C4601212020FFF7A6FE6B
:101CC00001210802FFF7B2FE092211462148FFF761
:101CD000EDFC4FF40070099002208DF828000020E0
:101CE0008DF82A0003208DF8290001208DF82B00A3
:101CF00009A91848FFF792FC0020ADF82000A8B20F
:101D0000ADF8180007940020ADF81A0006A9124893
:101D100000F056F96020ADF804000120ADF806008F
:101D20000020ADF8100001A90B4800F09DF8082133
:101D3000094800F0D7F80121074800F07DF800219C
:101D4000054800F038F90121034800F081F80BB094
:101D500030BD0000001402400020004030B58BB0C0
:101D600005460C4601210420FFF760FE01210820F2
:101D7000FFF74CFE02220C212D48FFF797FC0222B0
:101D80000D212B48FFF792FC02208DF8280000203F
:101D90008DF82A004FF48050099003208DF8290017
:101DA00001208DF82B0009A92148FFF737FC4FF4DB
:101DB0000050099009A91E48FFF730FC0020ADF83B
:101DC0002000A8B2ADF8180007940020ADF81A0062
:101DD00006A9184800F0F4F86020ADF804000120CE
:101DE000ADF806000020ADF8100001A9114800F080
:101DF0003BF808210F4800F075F801A90D4800F0E4
:101E00007BF808210B4800F0C9F80121094800F0CF
:101E100013F80021074800F0CEF80021054800F033
:101E2000CCF80121034800F013F80BB030BD0000DE
:101E3000000C02400008004021B1028842F08002FC
:101E4000028004E002884FF67F731A4002807047D8
:101E500021B1028842F00102028004E002884FF6BC
:101E6000FE731A400280704770B5002400220023E0
:101E7000058C4FF6FE7635400584028C8388048BF2
:101E80004FF68F752C40B51E2C400D882C43751EC7
:101E90002A408D892A434D882A43104DA84202D0FA
:101EA0000F4DA84213D14FF6F7752A40CD892A432A
:101EB0004FF6FB752A408D882A434FF6FF652B406D
:101EC0004FF6FF552B400D8A2B434D8A2B438380C1
:101ED00004838D684563028470BD000000000140EA
:101EE000000401400A460021018B4FF6F7731940A8
:101EF000114301837047000070B5002400220023C5
:101F0000058C4FF6EF7635400584028C8388048B70
:101F100048F6FF752C404FF6FF452C400D884FF6D4
:101F2000FF7606EA05252C434FF6DF752A408D899A
:101F300006EA05152A434D8806EA05152A43154D7C
:101F4000A84202D0144DA8421DD14FF67F752A40F9
:101F5000CD894FF6FF7606EA05152A434FF6BF7581
:101F60002A408D8806EA05152A434FF6FF352B4097
:101F70004FF2FF752B400D8A06EA85052B434D8AEB
:101F800006EA85052B43838004838D68856302847C
:101F900070BD000000000140000401400A4600211D
:101FA000018B4FF2FF7319404FF6FF7303EA0223D0
:101FB0001943018370474163704781637047000094
:101FC00000220288184B98420ED0184B98420BD032
:101FD000B0F1804F08D0164B984205D0154B98426F
:101FE00002D0154B984204D14FF68F731A404B889C
:101FF0001A43124B984207D0114B984204D04FF627
:10200000FF431A400B891A4302804B68C3620B8856
:102010000385054B984202D0044B984201D18B7A3C
:1020200003860123838270470000014000040140C1
:102030000004004000080040000C00400010004078
:102040000014004010B540F225510E4800F0D0F8C1
:10205000012811D10B4800F085F90B490B4A126891
:1020600088540A480068401C08490860084600680F
:10207000322801D10020086040F22551014800F0CB
:102080008FF810BD00100140380000201C00002017
:1020900010B588B0044601211020FFF7D7FC0121BC
:1020A0000846FFF7B3FC072209212848FFF7FEFA8C
:1020B00007220A212548FFF7F9FA02208DF81C00B3
:1020C00000208DF81E0003208DF81D004FF40070D5
:1020D000069006A91D48FFF7A1FA02208DF81C0002
:1020E00000208DF81F004FF48060069006A9174865
:1020F000FFF794FA02940020ADF814000C20ADF81C
:1021000012000020ADF80C00ADF80E00ADF8100084
:1021100002A90F4800F0BCF8012240F225510C48FA
:1021200000F090F825208DF8040001208DF80700BC
:1021300000208DF806008DF8050001A8FFF71EFCB1
:102140000121034800F03BF808B010BD0000024038
:102150000010014010B540F225510E4800F048F83B
:10216000012811D10B4800F0FDF80B490B4A126809
:1021700088540A480068401C0849086008460068FE
:10218000322801D10020086040F22551014800F0BA
:1021900007F810BD001401406A0000201C00002058
:1021A00010B50022002340F66A14A14200D100BFFE
:1021B0000A1201249440A3B2DC43048010BD21B173
:1021C000828942F40052828104E082894DF6FF73D5
:1021D0001A408281704702460020B1F5007F00D18D
:1021E00000BF13880B400BB1012000E000207047B6
:1021F00070B50246002400230025002040F66A1630
:10220000B14200D100BFC1F3421501F01F03012606
:1022100006FA03F3012D02D19689334006E0022D20
:1022200002D1168A334001E0968A33400C1201260F
:1022300006FA04F41688344013B10CB1012000E012
:10224000002070BDF0B503460024002600250020C4
:1022500040F66A17B94200D100BF1846C1F34214D4
:1022600001F01F06012707FA06F5012C01D10C30F9
:1022700004E0022C01D1103000E014301AB10768DC
:102280002F43076002E00768AF430760F0BD00001E
:102290002DE9FF4705460E460024A14600BFA04693
:1022A000B08900B100BF2C8A24F44054F088044364
:1022B0002C82AC8941F20C608443B0883189084398
:1022C000718908430443AC81AC8A24F44074B0891A
:1022D0000443AC826846FFF7C9FB2048854202D020
:1022E0001F48854202D1DDF80C9001E0DDF808902E
:1022F000A88900F4004040B109EBC90000EB0910C7
:1023000031684900B0FBF1F707E009EBC90000EBC9
:10231000091031688900B0FBF1F76420B7FBF0F0D9
:1023200004012009642101FB1078A88900F4004011
:1023300040B1322000EBC800B0FBF1F000F0070024
:10234000044308E0322000EB08106421B0FBF1F0F8
:1023500000F00F0004432C81BDE8FF87001001400E
:102360000014014001468888C0F30800704770B52A
:1023700004460D462946204600F008F800BF80219B
:102380002046FFF728FF0028F9D070BDC1F30802EE
:102390008280704770B506460C46002505E0615DF9
:1023A0003046FFF7E4FF681CC5B2605D0028F6D137
:1023B00070BD00BFFEE703B401984100009850EAE9
:1023C000C12018BF04204A0D18BF40F0010040F2A0
:1023D000FF72B2EB515F08BF40F00200012808BF56
:1023E000052002B0704730380A2801D2012070471A
:1023F000002070472DED028B8EB000BF00BF4FF460
:10240000A060FFF7F7FAFFF7A9F84FF4E130FFF704
:102410003FFEFFF769F8FEF74FFF4FF47A71532044
:10242000FFF746FC4FF47A715320FFF797FCFFF754
:1024300093F90320FEF794FF0EA11248FFF7AAFFBD
:1024400016E0FEF759FF10EE104A204600F0DCFAC5
:1024500041EC180B53EC182B0BA101A8FDF710FF52
:1024600001A90848FFF796FF4FF4FA70FFF796F8B6
:10247000E7E7000054657374204452563838333708
:102480000D0A0000001001406C696768743A25323B
:102490002E3166206C780D0A0000000010B500296E
:1024A0000AD00878002807D005487844FEF702FBD8
:1024B000002801D0002010BD0248784410BD000063
:1024C0000E0700000607000021F00042A2F1605252
:1024D000B2F5801F01F0004328BFD2F17F6C0BD909
:1024E0005FEA001C43EAC20242EB507018BF70471B
:1024F00028BF20F001007047B2F5801FBCBF18460E
:1025000070474FEA410C1CF5001F02D2084600F04C
:10251000F1BA70B500F024FA00000089FFF7F6BFA9
:102520004FF00040A0F58000704700002DE9C04149
:1025300030B4DFF8A0C23CEA111418BF3CEA13140F
:1025400000F0EC8081EA03051CEA111444EAD5741A
:1025500018BF1CEA131500F0C780A4EB05044FF068
:10256000004545EAC12145EAC32341EA505143EA07
:10257000525304F17F74994204F500344FEAC020AD
:102580004FEAC22208BF904200F09C804FEA1365D8
:102590000FF24016765D4FEA134506FB05F7C7F1CB
:1025A000807706FB07F74FEAD737A7FB0368764229
:1025B000C8F58038A7FB06CE38BFA8F1010807FB95
:1025C00008E64FF0000EA6FB028CE6FB03CEDCF122
:1025D000000CCEF1004E38BFAEF1010EA6FB0C5838
:1025E0004FF000074FF00005E6FB0E87A1FB08C681
:1025F000A0FB07CE16EB0E0645F10005E1FB0765D3
:1026000015F1E04E7EBFA4F580345FEA46066D41C9
:1026100016F1800745F100054FEA17274FEA0666D5
:1026200047EA0567A6F1DE46B6F1805F4FEA152559
:102630001FD9384624F0010C05EBC471BCF1FE6FC4
:1026400001EB0C1102D8F0BCBDE8008124425CBF54
:1026500001F5801E9EEAC47F02D4F0BCBDE8008173
:10266000244238D4F0BCA1F1C041BDE8004100F0E3
:10267000C5B94FEAD22242EA43524FEAD323A7FB1D
:1026800002864FEAD02040EA415007FB03661EEA6B
:102690000E0F4FEAD12105FB026658BFA6EB00568C
:1026A000B6EB00564FEA520E4EEAC37E18EB0E0E02
:1026B00056EB530EBDD518EB02085E417F1C55F159
:1026C0000005B6E74FF480154FF000074FF0000605
:1026D0004FF00008ADE7F0BC4FF0000001F1C04141
:1026E00001F00041BDE8008111EA0C1F0CEA13154E
:1026F00000D00CE013EA0C1F00F025804FF0000022
:10270000F0BC81EA030101F00041BDE80081F0BCAA
:10271000BDE8004181EA030100F070B9F0BCBDE8FA
:10272000004170B500F01CF9097EFC3E00F007B8CE
:1027300081EA03014FF0000001F00041704781EA97
:10274000030100F05BB9F0BCBDE800414FF00000B0
:1027500021497047FFFDFBF9F7F5F4F2F0EEEDEBE0
:10276000E9E8E6E4E3E1E0DEDDDBDAD8D7D5D4D38F
:10277000D1D0CFCDCCCBCAC8C7C6C5C4C2C1C0BFDB
:10278000BEBDBCBBBAB9B8B7B6B5B4B3B2B1B0AFE1
:10279000AEADACABAAA9A8A8A7A6A5A4A3A3A2A1C5
:1027A000A09F9F9E9D9C9C9B9A9999989797969580
:1027B00095949393929191908F8F8E8E8D8C8C8B1C
:1027C0008B8A8989888887878685858484838382A4
:1027D000828181800000FF070000F87F10F0004236
:1027E00048BF4042B0FA80F310FA03F10AD0C3F1B7
:1027F0001D0303F580634FEA415002EB035202EBE5
:10280000D12170474FF0000070470000DFF848C149
:1028100070B51CEA111E1EBF1CEA13159EEA0C0FB0
:1028200095EA0C0F00F06F8081EA030423EA4C1351
:102830004EEAD47E21EA4C1141F4801143F4801316
:10284000AE44A1FB024CA0FB0365AEF17F7E3619BE
:1028500055EB0C05A1FB034C4CF10003A0FB021C43
:1028600016EB0C06654153F10003094218BF46F010
:10287000010613F4007F0BD14FEA03314FEA053014
:10288000340341EA155140EA16506FF003020AE0A2
:102890004FEAC3214FEAC520F40241EA555140EA0C
:1028A00056506FF0020202EB2E4201EB025585EA10
:1028B000CE710AD05FEA440C18BF24F0004450F1F6
:1028C000000041F1000120EAD47040F2FE7C624534
:1028D00000D270BDA84214BF4FF080444FF0404476
:1028E000002E08BF0024BEF1806FA8BFA1F1C04137
:1028F000BDE8704080F282804FF0000001F1C041DD
:1029000001F0004170479EEA0C0F0CEA131518BF46
:1029100095EA0C0F06D04FF0000081EA030E0EF08E
:10292000004170BD00F01CF88900013E00F007B8BE
:1029300000F009B84FEA430C5FEA5C5C08D081EA1A
:10294000030100F05BB84FEA410C5FEA5C5CF6D132
:102950004FF00000014970470000FF070000F87FBA
:102960000EF1020E2EF0030E5EF8046B364205D413
:10297000012A43EB030515F5001F12D8012841EB8E
:10298000010C1CF5001F0CD80ED14FEAD17C15F5B7
:10299000001F0CEB4C0C0CF1020C08BF4CEBD37C71
:1029A00004E04FF0080C01E04FEAD37C0CEB4C053F
:1029B00026FA05F606F00706B6F1040C06D20EEB71
:1029C000860CBDE870404CF0010C6047DFE80CF06D
:1029D000090B02024FF000414FF00000A1F5002169
:1029E00070BD19461046012851EB010418BFD4F5FB
:1029F000001484BF002001F0004170BD0808A0F55C
:102A000000114FEA3101704743004FEAD30C4FEAFF
:102A10003C0C43401FBF40070CF1605113F0FE4FC8
:102A200070471CF0006F03D100200CF0004170478C
:102A30000CF0004343EA507010B540EACC0000F0BF
:102A40000EF800BF000000924FEA0001FFF7D6BF6A
:102A50004FF000414FF00000A1F5002170470EF14A
:102A6000020E2EF0030E5EF8044B244204D44FEA0B
:102A70004102B2F17F4F11D84FEA4003B3F17F4FCB
:102A80000CD80ED14FEAD07CB2F17F4F0CEB4C0C3E
:102A90000CF1020C08BF4CEBD17C04E04FF0080CA9
:102AA00001E04FEAD17C0CEB4C0324FA03F404F070
:102AB0000704B4F1040C06D20EEB840CBDE8104000
:102AC0004CF0010C6047DFE80CF0070802024FF001
:102AD0000040A0F5800010BD0846420018BFD2F1AA
:102AE000807288BF00F0004010BD4FF04070E1EEF2
:102AF000100A7047FF2141EAD050C0057047FDF72A
:102B00005BBD000002400000000000A000000000CB
:102B100005400000000000C8000000000C4000005C
:102B20000000409C00000000194000000020BCBED6
:102B30000000000034400000BFC91B8E00000004EC
:102B4000B5400000504BCFD06607E2CF0100000037
:102B50006C4100003E8251AADFEEA7340100000064
:102B6000D9420000DCB5A0E23A301F97FFFFFFFF1B
:102B7000B4450000FD25A0C8E9A3C14FFFFFFFFF3A
:102B8000FF3F00000000008000000000FF3F000049
:102B90000000008000000000D42B0008000000208E
:102BA00038000000C40100080C2C00083800002088
:102BB000C8060000E00100081C00000043000000FF
:102BC000F8FFFFFF0C0000000E0000000F000000E7
:102BD0002E000000007A030A000000000000000040
:102BE00001020304060708090000000000000000BD
:102BF00000000000000000000000000000000102D2
:0C2C000003040102030406070809000099
:040000050800018965
:00000001FF
