:020000040800F2
:1000000008070020310200082D0B00083309000802
:10001000290B0008EF050008DF17000800000000AA
:10002000000000000000000000000000510E000869
:100030007507000800000000BD0B0008410F000814
:100040004B0200084B0200084B0200084B0200085C
:100050004B0200084B0200084B0200084B0200084C
:100060004B0200084B0200084B0200084B0200083C
:100070004B0200084B0200084B0200084B0200082C
:100080004B0200084B0200084B0200084B0200081C
:100090004B0200084B0200084B0200084B0200080C
:1000A0004B0200084B0200084B0200084B020008FC
:1000B0004B0200084B0200084B0200084B020008EC
:1000C0004B0200084B0200084B0200084B020008DC
:1000D0004B020008411300084B0200084B020008C5
:1000E0004B0200084B0200084B0200084B020008BC
:1000F0004B0200084B0200084B0200084B020008AC
:100100004B0200084B0200084B0200084B0200089B
:100110004B0200084B0200084B0200084B0200088B
:100120004B0200084B0200084B0200084B0200087B
:100130004B0200084B0200084B0200084B0200086B
:100140004B0200084B0200084B0200084B0200085B
:100150004B0200084B0200084B0200085114000833
:100160004B0200084B0200084B0200084B0200083B
:100170004B0200084B0200084B0200084B0200082B
:100180004B0200084B02000800F002F800F041F8B2
:100190000AA090E8000C82448344AAF10107DA45E2
:1001A00001D100F036F8AFF2090EBAE80F0013F0F3
:1001B000010F18BFFB1A43F001031847B8160000DF
:1001C000D8160000103A24BF78C878C1FAD8520770
:1001D00024BF30C830C144BF04680C6070470000C1
:1001E0000023002400250026103A28BF78C1FBD840
:1001F000520728BF30C148BF0B607047642900F028
:100200004B80002070471FB501F026FB1FBD10B5C5
:1002100010BD00F040F91146FFF7F5FF01F0E2FADA
:1002200000F05EF903B4FFF7F2FF03BC00F066F9DB
:100230000948804709480047FEE7FEE7FEE7FEE77A
:10024000FEE7FEE7FEE7FEE7FEE7FEE704480549B6
:10025000054A064B70470000450F00088901000859
:1002600008010020080700200803002008030020E0
:100270000FB41CB5074B06AA7B446946009005984D
:1002800000F0F1F80020694600F000F91CBC5DF8B0
:1002900014FB0000110200002DE9F0410646002485
:1002A00010687529314616A510D0AFF300800028DC
:1002B00002DA404213A507E031688A0701D512A58A
:1002C00002E0490704D511A5012401E0AFF3008045
:1002D00000210A2206F1240709E0B0FBF2FCB0FB82
:1002E000F2F302FB1C00303078541846491C0028F9
:1002F000F3D123462A463046BDE8F04100F055B818
:10030000000000002D0000002B0000002000000075
:100310002DE9F0410F4604460020DFF88480F844C0
:1003200020622046E168884790B3252806D0D4E9AA
:1003300001219047206A401C2062F2E700252046F8
:10034000E16888472028064608DB312E06D208EBF4
:10035000060010F8200C08B10543F0E7A80701D506
:1003600025F00405A6B1A6F14100192802D82036CF
:1003700045F400653A46314620462560FFF73EFFCA
:1003800048B1012805D0FF1D27F007070837C8E747
:1003900003E03F1DC5E73046C9E7206ABDE8F081AC
:1003A000401500007047704770472DE9F0470D4633
:1003B00099469246044600F124080168880604D54F
:1003C000E06921F01001216000E00120A84201DD78
:1003D000471B00E00027A1697A1902EB0900081AFF
:1003E000A0612078C00602D42046AFF3008000262A
:1003F00008E0D4E901211AF806009047206A401C61
:10040000761C20624E45F4DB2078C0060AD52046D3
:10041000AFF3008006E0D4E9012130209047206A44
:10042000401C2062381EA7F10107F4DC07E0D4E984
:10043000012118F805009047206A401C2062281E00
:10044000A5F10105F3DC2046AFF30080207800061B
:1004500002D50220BDE8F0870120FBE701694A1CB4
:1004600002610878704700B58FB0CDE901310021F5
:10047000059105497944CDE9031011466846FFF717
:1004800047FF0FB000BD0000E5FFFFFF0A6802F85C
:10049000010B0A607047754600F02CF8AE46050067
:1004A0006946534620F00700854618B020B5FFF78F
:1004B000CDFEBDE820404FF000064FF000074FF0A2
:1004C00000084FF0000B21F00701AC46ACE8C00972
:1004D000ACE8C009ACE8C009ACE8C0098D4670477B
:1004E00010B50446AFF300802046BDE81040FFF78A
:1004F00099BE000000487047A40000200149182060
:10050000ABBEFEE726000200704700001CB50121CB
:10051000084600F055FB01208DF8040000208DF8FE
:1005200006004FF40040009002208DF807000320E1
:100530008DF805006946044800F07EF94FF400414B
:10054000014800F0EDF91CBD0000024010B5044662
:10055000012000F035F8072000F032F8232000F0E9
:100560002FF8062C28D2DFE804F003090F151B2111
:10057000B7EE000A114880ED000A1DE0B6EE000A51
:100580000E4880ED000A17E0B1EE000A0B4880ED3E
:10059000000A11E0B7EE000A084880ED000A0BE0FF
:1005A000B6EE000A054880ED000A05E0B1EE000A4B
:1005B000024880ED000A00BF00BF10BD28000020E7
:1005C00010B5044600F022FA462000F0E7F900BF1B
:1005D00000F05CFA0028FBD1204600F0DFF900BFF4
:1005E00000F054FA0028FBD100F032FA10BD00BF31
:1005F000FEE7000010B5002400F02AF804E0601CBB
:10060000C4B2012000F0F6F84FF480710F4800F0FA
:100610007EF908B1642CF2DB642C01DB012010BDF3
:10062000002404E0601CC4B2012000F0E3F84FF4A1
:100630008071064800F06BF908B9642CF2DB642C79
:1006400001DB0120EBE70020E9E700000014024095
:100650001CB500208DF804004FF48070009000203D
:100660008DF807006946024800F0E6F81CBD00005E
:10067000001402401CB501208DF804000002009017
:1006800003208DF8050001208DF806006946024818
:1006900000F0D2F81CBD0000001402401CB501217E
:1006A000202000F08DFA01208DF804000002009057
:1006B00003208DF8050000208DF8060069460648E5
:1006C00000F0BAF84FF48071034800F02BF900F005
:1006D00005F8FFF78FFF1CBD0014024010B5FFF7AF
:1006E000C9FF00224FF48071074800F01DF9142063
:1006F00000F062F801221102034800F015F92820E9
:1007000000F078F810BD00000014024010B5044657
:1007100034B1012C0DD0022C15D0032C26D11CE0B5
:100720000021134800F0C5FD0021114800F0C3FD71
:100730001CE04FF4FA710E4800F0BBFD00210C489C
:1007400000F0B9FD12E00021094800F0B2FD4FF4BD
:10075000FA71074800F0AFFD08E00021044800F0FE
:10076000A8FD0021024800F0A6FD00BF00BF10BD9B
:10077000000800407047000000204FF0E0210861B1
:10078000094800680949B0FBF1F0094908600846CA
:1007900000684FF47A7148430649086000204FF022
:1007A000E0218861704700000000002000127A00FC
:1007B0001400002018000020014600200C4A126896
:1007C0004A434FF0E0235A6100229A6101221A61E4
:1007D00000BF4FF0E022106900F480321AB900F037
:1007E0000102002AF5D100224FF0E0231A61704780
:1007F00018000020014600200E4A12684A434FF0BC
:10080000E0235A6100229A611A46126942F00102FD
:100810001A6100BF4FF0E022106900F480321AB96B
:1008200000F00102002AF5D100224FF0E0231A6106
:100830007047000014000020F0B50A460021002394
:10084000002400BF3DE0012505FA01F3156805EA23
:1008500003049C4234D105684F000326BE40B543D3
:10086000056015794E00B540066835430560157979
:10087000012D02D01579022D16D185684F0003266F
:10088000BE40B543856055794E00B5408668354316
:100890008560456801268E40B54345604568967978
:1008A0008E40B6B235434560C5684F000326BE4052
:1008B000B543C560D5794E00B540C6683543C560BF
:1008C000491C1029BFD3F0BDF0B5002300244D070B
:1008D000ED0E02FA05F3CE1000F1200555F8265072
:1008E0004E07F70E0F26BE40B543CF1000F120068D
:1008F00046F82750CE1000F1200555F8265045EA5D
:100900000304CE1000F1200545F82640F0BD024654
:10091000002013690B400BB1012000E0002070475C
:1009200041837047018370470AB1018300E041832E
:10093000704700BFFEE700001CB50121222000F037
:100940003FF90220009001208DF8040000208DF86E
:10095000060003208DF8050001208DF80700694688
:100960000C48FFF769FF4FF48060009001208DF87C
:1009700004008DF8060069460748FFF75DFF022175
:100980000448FFF7CFFF4FF480610348FFF7CAFF29
:100990001CBD0000000402400014024070B5044673
:1009A00002211848FFF7BCFF002522E004F0800078
:1009B00028B14FF480611448FFF7B4FF04E04FF40E
:1009C00080611148FFF7ACFF0220FFF713FF0221FF
:1009D0000C48FFF7A7FF0220FFF70CFF0221094890
:1009E000FFF79EFF0220FFF705FF6006040E681C5C
:1009F000C5B2082DDADB4FF480610348FFF792FFA0
:100A000070BD0000000402400014024010B5022135
:100A10000D48FFF787FF4FF480610C48FFF782FF16
:100A20000420FFF7E7FE4FF480610848FFF778FFE6
:100A30000420FFF7DFFE02210348FFF771FF0220C9
:100A4000FFF7D8FE10BD0000000402400014024071
:100A500010B54FF480610B48FFF762FF0220FFF7EB
:100A6000C9FE02210848FFF75DFF0420FFF7C2FE20
:100A70004FF480610348FFF755FF0420FFF7BAFEEB
:100A800010BD0000001402400004024030B58DB0DB
:100A9000002402211E48FFF743FF0120FFF7AAFEB2
:100AA0004FF480611B48FFF73DFF0120FFF7A2FED6
:100AB00002211748FFF736FF0120FFF79BFE4FF496
:100AC00080611448FFF723FF05462A4612A16846B5
:100AD000FFF7CEFB6946134800F072FE08E0601C89
:100AE000C4B2FA2C04DBFFF7B3FF01200DB030BD18
:100AF0004FF480610748FFF70AFF0028EFD1022179
:100B00000348FFF70DFF0220FFF774FE0020EDE71A
:100B100000040240001402405344413A25640D0A87
:100B2000000000000010014000BFFEE77047000019
:100B300070B5002100230F22C4781CB3174C246821
:100B400004F4E064C4F5E064C4F30721C1F10404D3
:100B5000E3B20A4144789C40E1B2847814402143D6
:100B60000C07210E0E4C05786155047804F01F0522
:100B70000124AC4005786D11AD0005F1E025C5F804
:100B8000004109E0047804F01F050124AC40054D44
:100B90000678761145F8264070BD00000CED00E0A7
:100BA00000E400E080E100E002490143024A1160F4
:100BB000704700000000FA050CED00E070470000EF
:100BC00029B1064A12680243044B1A6004E0034A42
:100BD00012688243014B1A607047000030380240AF
:100BE00029B1064A12680243044B1A6004E0034A22
:100BF00012688243014B1A6070470000403802407F
:100C000029B1064A12680243044B1A6004E0034A01
:100C100012688243014B1A6070470000443802405A
:100C2000F0B5002100220024022500260223324FC5
:100C30003F6807F00C0121B1042905D0082937D1FC
:100C400005E02E4F076036E02D4F076033E02A4F56
:100C50003F1F3F68C7F38056274F3F1F3F6807F08D
:100C60003F036EB1264FB7FBF3F7DFF88CC0ACF152
:100C7000040CDCF800C0CCF3881C07FB0CF40CE07F
:100C80001E4FB7FBF3F7DFF870C0ACF1040CDCF8D3
:100C900000C0CCF3881C07FB0CF4174F3F1F3F68C4
:100CA000C7F301477F1C7D00B4FBF5F7076002E046
:100CB000124F076000BF00BF0F4F3F6807F0F00101
:100CC0000909104F7A5C0768D74047600A4F3F68B0
:100CD00007F4E051890A0B4F7A5C4768D740876078
:100CE000054F3F6807F46041490B064F7A5C47683F
:100CF000D740C760F0BD0000083802400024F4006F
:100D000040787D012E00002038B500208DF80000CD
:100D10008DF801008DF80200002418E000F08CF836
:100D20009DF8000000F04EF89DF8010000F04AF830
:100D30009DF8020000F046F80720FFF73DFD9DF802
:100D40000100401CC0B28DF80100601CC4B2FF2C31
:100D5000E4DB002418E000F06FF89DF8000000F0DC
:100D600031F89DF8010000F02DF89DF8020000F028
:100D700029F80520FFF720FD9DF80100401EC0B2B4
:100D80008DF80100601CC4B2FF2CE4DB38BD00000C
:100D90001CB501214020FFF713FF01208DF804004E
:100DA00000208DF806001020009002208DF807002A
:100DB00003208DF8050069460148FFF73DFD1CBD85
:100DC0000018024070B5054600240BE005FA04F057
:100DD00000F0800010B100F009F801E000F01AF80E
:100DE000601CC4B2082CF1DB70BD000010B50122FC
:100DF00010210748FFF798FD0120FFF7FBFC0022B8
:100E000010210348FFF790FD0320FFF7F3FC10BD0E
:100E10000018024010B5012210210648FFF784FD9A
:100E2000002210210348FFF77FFD0320FFF7E2FCBB
:100E300010BD00000018024010B500221021034828
:100E4000FFF772FD6420FFF7D5FC10BD00180240CB
:100E5000704700000CB500200190009034480068F5
:100E600040F480303249086000BF3148006800F427
:100E7000003000900198401C0190009818B901982A
:100E8000B0F5A04FF1D12A48006800F4003010B14D
:100E90000120009001E0002000900098012846D138
:100EA00023484030006840F08050214940310860BC
:100EB0002048006840F440401E4908601C48083043
:100EC00000681B49083108600846006840F400408B
:100ED00008600846006840F4A05008601648091FE2
:100EE0000860081F006840F08070091F086000BF9C
:100EF0000F48006800F000700028F9D040F205703B
:100F00000E4908600A480830006820F003000849CC
:100F1000083108600846006840F00200086000BF21
:100F200003480830006800F00C000828F8D10CBD18
:100F3000003802400070004019544007003C024055
:100F40007047000010B51548006840F47000134960
:100F500008601348006840F0010011490860002053
:100F60000F49083108600E4800680E4908400C49D6
:100F700008600D48091D0860081F006820F48020E3
:100F8000091F0860002006490C310860FFF762FF66
:100F90004FF0006001498039086010BD88ED00E025
:100FA00000380240FFFFF6FE1030002430B58BB051
:100FB00005460C4601212020FFF702FE0121080210
:100FC000FFF70EFE092211462148FFF77DFC4FF482
:100FD0000070099002208DF8280000208DF82A006A
:100FE00003208DF8290001208DF82B0009A918484D
:100FF000FFF722FC0020ADF82000A8B2ADF81800E1
:1010000007940020ADF81A0006A9124800F056F91E
:101010006020ADF804000120ADF806000020ADF816
:10102000100001A90B4800F09DF80821094800F0C4
:10103000D7F80121074800F07DF80021054800F0AD
:1010400038F90121034800F081F80BB030BD0000F1
:10105000001402400020004030B58BB005460C461D
:1010600001210420FFF7BCFD01210820FFF7A8FDA6
:1010700002220C212D48FFF727FC02220D212B48CC
:10108000FFF722FC02208DF8280000208DF82A00AE
:101090004FF48050099003208DF8290001208DF82D
:1010A0002B0009A92148FFF7C7FB4FF40050099016
:1010B00009A91E48FFF7C0FB0020ADF82000A8B228
:1010C000ADF8180007940020ADF81A0006A91848DA
:1010D00000F0F4F86020ADF804000120ADF806003F
:1010E0000020ADF8100001A9114800F03BF80821DC
:1010F0000F4800F075F801A90D4800F07BF80821B1
:101100000B4800F0C9F80121094800F013F800214C
:10111000074800F0CEF80021054800F0CCF8012186
:10112000034800F013F80BB030BD0000000C024083
:101130000008004021B1028842F08002028004E0F1
:1011400002884FF67F731A400280704721B10288EF
:1011500042F00102028004E002884FF6FE731A405A
:101160000280704770B5002400220023058C4FF6E2
:10117000FE7635400584028C8388048B4FF68F758C
:101180002C40B51E2C400D882C43751E2A408D899D
:101190002A434D882A43104DA84202D00F4DA84241
:1011A00013D14FF6F7752A40CD892A434FF6FB75C8
:1011B0002A408D882A434FF6FF652B404FF6FF5596
:1011C0002B400D8A2B434D8A2B43838004838D68EB
:1011D0004563028470BD000000000140000401402E
:1011E0000A460021018B4FF6F77319401143018322
:1011F0007047000070B5002400220023058C4FF6D4
:10120000EF7635400584028C8388048B48F6FF75A1
:101210002C404FF6FF452C400D884FF6FF7606EA2E
:1012200005252C434FF6DF752A408D8906EA051502
:101230002A434D8806EA05152A43154DA84202D0D7
:10124000144DA8421DD14FF67F752A40CD894FF627
:10125000FF7606EA05152A434FF6BF752A408D88AA
:1012600006EA05152A434FF6FF352B404FF2FF756E
:101270002B400D8A06EA85052B434D8A06EA850533
:101280002B43838004838D688563028470BD0000D6
:1012900000000140000401400A460021018B4FF28A
:1012A000FF7319404FF6FF7303EA022319430183CA
:1012B00070474163704781637047000000220288D5
:1012C000184B98420ED0184B98420BD0B0F1804F7B
:1012D00008D0164B984205D0154B984202D0154BBA
:1012E000984204D14FF68F731A404B881A43124B21
:1012F000984207D0114B984204D04FF6FF431A4052
:101300000B891A4302804B68C3620B880385054B27
:10131000984202D0044B984201D18B7A0386012374
:101320008382704700000140000401400004004037
:1013300000080040000C0040001000400014004075
:1013400010B540F225510E4800F068F9012811D17E
:101350000B4800F01DFA0B490B4A126888540A48E2
:101360000068401C0849086008460068322801D11E
:101370000020086040F22551014800F027F910BD17
:1013800000100140400000201C00002010B588B073
:10139000044601211020FFF733FC01210846FFF726
:1013A0000FFC072209212848FFF78EFA07220A219D
:1013B0002548FFF789FA02208DF81C0000208DF8DF
:1013C0001E0003208DF81D004FF40070069006A942
:1013D0001D48FFF731FA02208DF81C0000208DF81F
:1013E0001F004FF48060069006A91748FFF724FA03
:1013F00002940020ADF814000C20ADF8120000207B
:10140000ADF80C00ADF80E00ADF8100002A90F48C1
:1014100000F054F9012240F225510C4800F028F95F
:1014200025208DF8040001208DF8070000208DF89C
:1014300006008DF8050001A8FFF77AFB012103489B
:1014400000F0D3F808B010BD0000024000100140C9
:1014500010B540F22551284800F0E0F8012845D1A8
:10146000254800F095F9254908702548007878B995
:1014700008460078552839D10120214908701F48B5
:10148000007820490870002048708870C8702DE0EE
:101490001B480078012807D1022019490870174815
:1014A00000781849487021E01548007802280AD1D0
:1014B00003201349087011480078124988700120F0
:1014C0001149087012E00E480078032807D1002067
:1014D0000B490870094800780A49C87006E00020E6
:1014E00007490870084908700649087040F22551FC
:1014F000014800F06BF810BD0014014024000020EA
:1015000023000020720000202200002010B588B0C7
:10151000044601210420FFF753FB01212020FFF79F
:101520006FFB082206212748FFF7CEF90822072182
:101530002448FFF7C9F94020069002208DF81C00CE
:1015400000208DF81E0003208DF81D0006A91D48FF
:10155000FFF772F98020069002208DF81C00002011
:101560008DF81F0006A91748FFF766F902940C20B2
:10157000ADF812000020ADF81400ADF80C00ADF885
:101580001000ADF80E0002A90F4800F097F84720B0
:101590008DF8040000208DF8050001208DF806006C
:1015A0008DF8070001A8FFF7C3FA012240F2255188
:1015B000054800F05DF80121034800F016F808B076
:1015C00010BD0000000802400014014010B50022C8
:1015D000002340F66A14A14200D100BF0A12012480
:1015E0009440A3B2DC43048010BD21B1828942F44F
:1015F0000052828104E082894DF6FF731A40828195
:10160000704702460020B1F5007F00D100BF13886B
:101610000B400BB1012000E00020704770B502467E
:10162000002400230025002040F66A16B14200D1B4
:1016300000BFC1F3421501F01F03012606FA03F3B0
:10164000012D02D19689334006E0022D02D1168A7F
:10165000334001E0968A33400C12012606FA04F466
:101660001688344013B10CB1012000E0002070BD99
:10167000F0B50346002400260025002040F66A1736
:10168000B94200D100BF1846C1F3421401F01F0651
:10169000012707FA06F5012C01D10C3004E0022CD9
:1016A00001D1103000E014301AB107682F430760F1
:1016B00002E00768AF430760F0BD00002DE9FF4777
:1016C00005460E460024A14600BFA046B08900B1E1
:1016D00000BF2C8A24F44054F08804432C82AC8947
:1016E00041F20C608443B088318908437189084312
:1016F0000443AC81AC8A24F44074B0890443AC82C6
:101700006846FFF78DFA2048854202D01F4885427F
:1017100002D1DDF80C9001E0DDF80890A88900F412
:10172000004040B109EBC90000EB091031684900E5
:10173000B0FBF1F707E009EBC90000EB09103168D5
:101740008900B0FBF1F76420B7FBF0F00401200939
:10175000642101FB1078A88900F4004040B13220D8
:1017600000EBC800B0FBF1F000F00700044308E014
:10177000322000EB08106421B0FBF1F000F00F0004
:1017800004432C81BDE8FF87001001400014014094
:1017900001468888C0F30800704770B504460D46BE
:1017A0002946204600F008F800BF80212046FFF7B8
:1017B00028FF0028F9D070BDC1F30802828070476D
:1017C00070B506460C46002505E0615D3046FFF722
:1017D000E4FF681CC5B2605D0028F6D170BD00BF93
:1017E000FEE7000000BF00BF4FF4A060FFF7DCF988
:1017F000FEF7C2FF4FF4E130FFF7C8FD4FF4E130D0
:10180000FFF784FEFEF74AFFFEF780FE4FF47A7181
:101810005320FFF7CBFB4FF47A715320FFF71CFCEA
:10182000FFF78AF80320FEF791FE0020FEF76EFF17
:10183000FFF7AEFA03A10748FFF7C2FF01E0FFF789
:1018400063FAFCE75465737420536B363831320DFC
:101850000A000000001001404FF04070E1EE100A55
:1018600070470400000800000000000000020001B2
:101870000000100094180008000000204000000044
:10188000C4010008D418000840000020C806000069
:10189000E0010008007A030A0000000000000000D8
:1018A0000102030406070809000000000000000010
:1018B0000000000000000000000000000000000028
:1018C00000000000000001020304010203040607F7
:0418D0000809000003
:040000050800018965
:00000001FF
